{
  "contractName": "AIArtFractionalNFT",
  "abi": [
    {
      "inputs": [
        {
          "internalType": "string",
          "name": "name",
          "type": "string"
        },
        {
          "internalType": "string",
          "name": "symbol",
          "type": "string"
        }
      ],
      "stateMutability": "nonpayable",
      "type": "constructor"
    },
    {
      "anonymous": false,
      "inputs": [
        {
          "indexed": true,
          "internalType": "address",
          "name": "owner",
          "type": "address"
        },
        {
          "indexed": true,
          "internalType": "address",
          "name": "approved",
          "type": "address"
        },
        {
          "indexed": true,
          "internalType": "uint256",
          "name": "tokenId",
          "type": "uint256"
        }
      ],
      "name": "Approval",
      "type": "event"
    },
    {
      "anonymous": false,
      "inputs": [
        {
          "indexed": true,
          "internalType": "address",
          "name": "owner",
          "type": "address"
        },
        {
          "indexed": true,
          "internalType": "address",
          "name": "operator",
          "type": "address"
        },
        {
          "indexed": false,
          "internalType": "bool",
          "name": "approved",
          "type": "bool"
        }
      ],
      "name": "ApprovalForAll",
      "type": "event"
    },
    {
      "anonymous": false,
      "inputs": [
        {
          "indexed": true,
          "internalType": "uint256",
          "name": "tokenId",
          "type": "uint256"
        },
        {
          "indexed": false,
          "internalType": "string",
          "name": "imageHash",
          "type": "string"
        },
        {
          "indexed": false,
          "internalType": "address[]",
          "name": "artistAddresses",
          "type": "address[]"
        },
        {
          "indexed": false,
          "internalType": "uint256[]",
          "name": "ownershipPercentages",
          "type": "uint256[]"
        }
      ],
      "name": "ArtMinted",
      "type": "event"
    },
    {
      "anonymous": false,
      "inputs": [
        {
          "indexed": true,
          "internalType": "uint256",
          "name": "tokenId",
          "type": "uint256"
        },
        {
          "indexed": false,
          "internalType": "address[]",
          "name": "artistAddresses",
          "type": "address[]"
        },
        {
          "indexed": false,
          "internalType": "uint256[]",
          "name": "distributedAmounts",
          "type": "uint256[]"
        }
      ],
      "name": "FeesDistributed",
      "type": "event"
    },
    {
      "anonymous": false,
      "inputs": [
        {
          "indexed": true,
          "internalType": "address",
          "name": "from",
          "type": "address"
        },
        {
          "indexed": true,
          "internalType": "address",
          "name": "to",
          "type": "address"
        },
        {
          "indexed": true,
          "internalType": "uint256",
          "name": "tokenId",
          "type": "uint256"
        }
      ],
      "name": "Transfer",
      "type": "event"
    },
    {
      "inputs": [
        {
          "internalType": "address",
          "name": "to",
          "type": "address"
        },
        {
          "internalType": "uint256",
          "name": "tokenId",
          "type": "uint256"
        }
      ],
      "name": "approve",
      "outputs": [],
      "stateMutability": "nonpayable",
      "type": "function"
    },
    {
      "inputs": [
        {
          "internalType": "address",
          "name": "owner",
          "type": "address"
        }
      ],
      "name": "balanceOf",
      "outputs": [
        {
          "internalType": "uint256",
          "name": "",
          "type": "uint256"
        }
      ],
      "stateMutability": "view",
      "type": "function"
    },
    {
      "inputs": [],
      "name": "contractOwner",
      "outputs": [
        {
          "internalType": "address",
          "name": "",
          "type": "address"
        }
      ],
      "stateMutability": "view",
      "type": "function"
    },
    {
      "inputs": [
        {
          "internalType": "uint256",
          "name": "tokenId",
          "type": "uint256"
        }
      ],
      "name": "getApproved",
      "outputs": [
        {
          "internalType": "address",
          "name": "",
          "type": "address"
        }
      ],
      "stateMutability": "view",
      "type": "function"
    },
    {
      "inputs": [
        {
          "internalType": "address",
          "name": "owner",
          "type": "address"
        },
        {
          "internalType": "address",
          "name": "operator",
          "type": "address"
        }
      ],
      "name": "isApprovedForAll",
      "outputs": [
        {
          "internalType": "bool",
          "name": "",
          "type": "bool"
        }
      ],
      "stateMutability": "view",
      "type": "function"
    },
    {
      "inputs": [],
      "name": "name",
      "outputs": [
        {
          "internalType": "string",
          "name": "",
          "type": "string"
        }
      ],
      "stateMutability": "view",
      "type": "function"
    },
    {
      "inputs": [
        {
          "internalType": "uint256",
          "name": "tokenId",
          "type": "uint256"
        }
      ],
      "name": "ownerOf",
      "outputs": [
        {
          "internalType": "address",
          "name": "",
          "type": "address"
        }
      ],
      "stateMutability": "view",
      "type": "function"
    },
    {
      "inputs": [
        {
          "internalType": "address",
          "name": "from",
          "type": "address"
        },
        {
          "internalType": "address",
          "name": "to",
          "type": "address"
        },
        {
          "internalType": "uint256",
          "name": "tokenId",
          "type": "uint256"
        }
      ],
      "name": "safeTransferFrom",
      "outputs": [],
      "stateMutability": "nonpayable",
      "type": "function"
    },
    {
      "inputs": [
        {
          "internalType": "address",
          "name": "from",
          "type": "address"
        },
        {
          "internalType": "address",
          "name": "to",
          "type": "address"
        },
        {
          "internalType": "uint256",
          "name": "tokenId",
          "type": "uint256"
        },
        {
          "internalType": "bytes",
          "name": "data",
          "type": "bytes"
        }
      ],
      "name": "safeTransferFrom",
      "outputs": [],
      "stateMutability": "nonpayable",
      "type": "function"
    },
    {
      "inputs": [
        {
          "internalType": "address",
          "name": "operator",
          "type": "address"
        },
        {
          "internalType": "bool",
          "name": "approved",
          "type": "bool"
        }
      ],
      "name": "setApprovalForAll",
      "outputs": [],
      "stateMutability": "nonpayable",
      "type": "function"
    },
    {
      "inputs": [
        {
          "internalType": "bytes4",
          "name": "interfaceId",
          "type": "bytes4"
        }
      ],
      "name": "supportsInterface",
      "outputs": [
        {
          "internalType": "bool",
          "name": "",
          "type": "bool"
        }
      ],
      "stateMutability": "view",
      "type": "function"
    },
    {
      "inputs": [],
      "name": "symbol",
      "outputs": [
        {
          "internalType": "string",
          "name": "",
          "type": "string"
        }
      ],
      "stateMutability": "view",
      "type": "function"
    },
    {
      "inputs": [
        {
          "internalType": "uint256",
          "name": "tokenId",
          "type": "uint256"
        }
      ],
      "name": "tokenURI",
      "outputs": [
        {
          "internalType": "string",
          "name": "",
          "type": "string"
        }
      ],
      "stateMutability": "view",
      "type": "function"
    },
    {
      "inputs": [
        {
          "internalType": "address",
          "name": "from",
          "type": "address"
        },
        {
          "internalType": "address",
          "name": "to",
          "type": "address"
        },
        {
          "internalType": "uint256",
          "name": "tokenId",
          "type": "uint256"
        }
      ],
      "name": "transferFrom",
      "outputs": [],
      "stateMutability": "nonpayable",
      "type": "function"
    },
    {
      "inputs": [
        {
          "internalType": "address[]",
          "name": "artistAddresses",
          "type": "address[]"
        },
        {
          "internalType": "uint256[]",
          "name": "ownershipPercentages",
          "type": "uint256[]"
        },
        {
          "internalType": "string",
          "name": "imageHash",
          "type": "string"
        }
      ],
      "name": "mintAIArt",
      "outputs": [],
      "stateMutability": "payable",
      "type": "function"
    },
    {
      "inputs": [
        {
          "internalType": "uint256",
          "name": "tokenId",
          "type": "uint256"
        }
      ],
      "name": "getArtistList",
      "outputs": [
        {
          "internalType": "address[]",
          "name": "",
          "type": "address[]"
        }
      ],
      "stateMutability": "view",
      "type": "function"
    },
    {
      "inputs": [
        {
          "internalType": "uint256",
          "name": "tokenId",
          "type": "uint256"
        }
      ],
      "name": "getOwnershipPercentageList",
      "outputs": [
        {
          "internalType": "uint256[]",
          "name": "",
          "type": "uint256[]"
        }
      ],
      "stateMutability": "view",
      "type": "function"
    },
    {
      "inputs": [
        {
          "internalType": "uint256",
          "name": "tokenId",
          "type": "uint256"
        }
      ],
      "name": "getImageHash",
      "outputs": [
        {
          "internalType": "string",
          "name": "",
          "type": "string"
        }
      ],
      "stateMutability": "view",
      "type": "function"
    }
  ],
  "bytecode": "0x60806040526005600a553480156200001657600080fd5b50604051620043a5380380620043a583398181016040528101906200003c919062000240565b818181600090816200004f919062000510565b50806001908162000061919062000510565b50505033600b60006101000a81548173ffffffffffffffffffffffffffffffffffffffff021916908373ffffffffffffffffffffffffffffffffffffffff1602179055505050620005f7565b6000604051905090565b600080fd5b600080fd5b600080fd5b600080fd5b6000601f19601f8301169050919050565b7f4e487b7100000000000000000000000000000000000000000000000000000000600052604160045260246000fd5b6200011682620000cb565b810181811067ffffffffffffffff82111715620001385762000137620000dc565b5b80604052505050565b60006200014d620000ad565b90506200015b82826200010b565b919050565b600067ffffffffffffffff8211156200017e576200017d620000dc565b5b6200018982620000cb565b9050602081019050919050565b60005b83811015620001b657808201518184015260208101905062000199565b60008484015250505050565b6000620001d9620001d38462000160565b62000141565b905082815260208101848484011115620001f857620001f7620000c6565b5b6200020584828562000196565b509392505050565b600082601f830112620002255762000224620000c1565b5b815162000237848260208601620001c2565b91505092915050565b600080604083850312156200025a5762000259620000b7565b5b600083015167ffffffffffffffff8111156200027b576200027a620000bc565b5b62000289858286016200020d565b925050602083015167ffffffffffffffff811115620002ad57620002ac620000bc565b5b620002bb858286016200020d565b9150509250929050565b600081519050919050565b7f4e487b7100000000000000000000000000000000000000000000000000000000600052602260045260246000fd5b600060028204905060018216806200031857607f821691505b6020821081036200032e576200032d620002d0565b5b50919050565b60008190508160005260206000209050919050565b60006020601f8301049050919050565b600082821b905092915050565b600060088302620003987fffffffffffffffffffffffffffffffffffffffffffffffffffffffffffffffff8262000359565b620003a4868362000359565b95508019841693508086168417925050509392505050565b6000819050919050565b6000819050919050565b6000620003f1620003eb620003e584620003bc565b620003c6565b620003bc565b9050919050565b6000819050919050565b6200040d83620003d0565b620004256200041c82620003f8565b84845462000366565b825550505050565b600090565b6200043c6200042d565b6200044981848462000402565b505050565b5b8181101562000471576200046560008262000432565b6001810190506200044f565b5050565b601f821115620004c0576200048a8162000334565b620004958462000349565b81016020851015620004a5578190505b620004bd620004b48562000349565b8301826200044e565b50505b505050565b600082821c905092915050565b6000620004e560001984600802620004c5565b1980831691505092915050565b6000620005008383620004d2565b9150826002028217905092915050565b6200051b82620002c5565b67ffffffffffffffff811115620005375762000536620000dc565b5b620005438254620002ff565b6200055082828562000475565b600060209050601f83116001811462000588576000841562000573578287015190505b6200057f8582620004f2565b865550620005ef565b601f198416620005988662000334565b60005b82811015620005c2578489015182556001820191506020850194506020810190506200059b565b86831015620005e25784890151620005de601f891682620004d2565b8355505b6001600288020188555050505b505050505050565b613d9e80620006076000396000f3fe6080604052600436106101095760003560e01c806395d89b4111610095578063c87b56dd11610064578063c87b56dd1461037e578063ce606ee0146103bb578063e63003ef146103e6578063e985e9c514610423578063ef965d331461046057610109565b806395d89b41146102e5578063a22cb46514610310578063b88d4fde14610339578063bea0a1b81461036257610109565b806323b872dd116100dc57806323b872dd146101dc57806342842e0e14610205578063628344621461022e5780636352211e1461026b57806370a08231146102a857610109565b806301ffc9a71461010e57806306fdde031461014b578063081812fc14610176578063095ea7b3146101b3575b600080fd5b34801561011a57600080fd5b5061013560048036038101906101309190612534565b61049d565b604051610142919061257c565b60405180910390f35b34801561015757600080fd5b5061016061057f565b60405161016d9190612627565b60405180910390f35b34801561018257600080fd5b5061019d6004803603810190610198919061267f565b610611565b6040516101aa91906126ed565b60405180910390f35b3480156101bf57600080fd5b506101da60048036038101906101d59190612734565b610657565b005b3480156101e857600080fd5b5061020360048036038101906101fe9190612774565b61076e565b005b34801561021157600080fd5b5061022c60048036038101906102279190612774565b6107ce565b005b34801561023a57600080fd5b506102556004803603810190610250919061267f565b6107ee565b6040516102629190612627565b60405180910390f35b34801561027757600080fd5b50610292600480360381019061028d919061267f565b610893565b60405161029f91906126ed565b60405180910390f35b3480156102b457600080fd5b506102cf60048036038101906102ca91906127c7565b610919565b6040516102dc9190612803565b60405180910390f35b3480156102f157600080fd5b506102fa6109d0565b6040516103079190612627565b60405180910390f35b34801561031c57600080fd5b506103376004803603810190610332919061284a565b610a62565b005b34801561034557600080fd5b50610360600480360381019061035b91906129bf565b610a78565b005b61037c60048036038101906103779190612c6e565b610ada565b005b34801561038a57600080fd5b506103a560048036038101906103a0919061267f565b611084565b6040516103b29190612627565b60405180910390f35b3480156103c757600080fd5b506103d06110ec565b6040516103dd91906126ed565b60405180910390f35b3480156103f257600080fd5b5061040d6004803603810190610408919061267f565b611112565b60405161041a9190612dd3565b60405180910390f35b34801561042f57600080fd5b5061044a60048036038101906104459190612df5565b611297565b604051610457919061257c565b60405180910390f35b34801561046c57600080fd5b506104876004803603810190610482919061267f565b61132b565b6040516104949190612ef3565b60405180910390f35b60007f80ac58cd000000000000000000000000000000000000000000000000000000007bffffffffffffffffffffffffffffffffffffffffffffffffffffffff1916827bffffffffffffffffffffffffffffffffffffffffffffffffffffffff1916148061056857507f5b5e139f000000000000000000000000000000000000000000000000000000007bffffffffffffffffffffffffffffffffffffffffffffffffffffffff1916827bffffffffffffffffffffffffffffffffffffffffffffffffffffffff1916145b806105785750610577826114de565b5b9050919050565b60606000805461058e90612f44565b80601f01602080910402602001604051908101604052809291908181526020018280546105ba90612f44565b80156106075780601f106105dc57610100808354040283529160200191610607565b820191906000526020600020905b8154815290600101906020018083116105ea57829003601f168201915b5050505050905090565b600061061c82611548565b6004600083815260200190815260200160002060009054906101000a900473ffffffffffffffffffffffffffffffffffffffff169050919050565b600061066282610893565b90508073ffffffffffffffffffffffffffffffffffffffff168373ffffffffffffffffffffffffffffffffffffffff16036106d2576040517f08c379a00000000000000000000000000000000000000000000000000000000081526004016106c990612fe7565b60405180910390fd5b8073ffffffffffffffffffffffffffffffffffffffff166106f1611593565b73ffffffffffffffffffffffffffffffffffffffff161480610720575061071f8161071a611593565b611297565b5b61075f576040517f08c379a000000000000000000000000000000000000000000000000000000000815260040161075690613079565b60405180910390fd5b610769838361159b565b505050565b61077f610779611593565b82611654565b6107be576040517f08c379a00000000000000000000000000000000000000000000000000000000081526004016107b59061310b565b60405180910390fd5b6107c98383836116e9565b505050565b6107e983838360405180602001604052806000815250610a78565b505050565b606060086000838152602001908152602001600020805461080e90612f44565b80601f016020809104026020016040519081016040528092919081815260200182805461083a90612f44565b80156108875780601f1061085c57610100808354040283529160200191610887565b820191906000526020600020905b81548152906001019060200180831161086a57829003601f168201915b50505050509050919050565b60008061089f836119e2565b9050600073ffffffffffffffffffffffffffffffffffffffff168173ffffffffffffffffffffffffffffffffffffffff1603610910576040517f08c379a000000000000000000000000000000000000000000000000000000000815260040161090790613177565b60405180910390fd5b80915050919050565b60008073ffffffffffffffffffffffffffffffffffffffff168273ffffffffffffffffffffffffffffffffffffffff1603610989576040517f08c379a000000000000000000000000000000000000000000000000000000000815260040161098090613209565b60405180910390fd5b600360008373ffffffffffffffffffffffffffffffffffffffff1673ffffffffffffffffffffffffffffffffffffffff168152602001908152602001600020549050919050565b6060600180546109df90612f44565b80601f0160208091040260200160405190810160405280929190818152602001828054610a0b90612f44565b8015610a585780601f10610a2d57610100808354040283529160200191610a58565b820191906000526020600020905b815481529060010190602001808311610a3b57829003601f168201915b5050505050905090565b610a74610a6d611593565b8383611a1f565b5050565b610a89610a83611593565b83611654565b610ac8576040517f08c379a0000000000000000000000000000000000000000000000000000000008152600401610abf9061310b565b60405180910390fd5b610ad484848484611b8b565b50505050565b6000835111610b1e576040517f08c379a0000000000000000000000000000000000000000000000000000000008152600401610b159061329b565b60405180910390fd5b8151835114610b62576040517f08c379a0000000000000000000000000000000000000000000000000000000008152600401610b599061332d565b60405180910390fd5b60003411610ba5576040517f08c379a0000000000000000000000000000000000000000000000000000000008152600401610b9c90613399565b60405180910390fd5b600080600090505b8351811015610bf157838181518110610bc957610bc86133b9565b5b602002602001015182610bdc9190613417565b91508080610be99061344b565b915050610bad565b5060648114610c35576040517f08c379a0000000000000000000000000000000000000000000000000000000008152600401610c2c90613505565b60405180910390fd5b6000610c416006611be7565b9050610c4d3382611bf5565b610c576006611c13565b60005b8551811015610d6457600760008381526020019081526020016000206040518060400160405280888481518110610c9457610c936133b9565b5b602002602001015173ffffffffffffffffffffffffffffffffffffffff168152602001878481518110610cca57610cc96133b9565b5b6020026020010151815250908060018154018082558091505060019003906000526020600020906002020160009091909190915060008201518160000160006101000a81548173ffffffffffffffffffffffffffffffffffffffff021916908373ffffffffffffffffffffffffffffffffffffffff1602179055506020820151816001015550508080610d5c9061344b565b915050610c5a565b5082600860008381526020019081526020016000209081610d8591906136d1565b5060006064600a5434610d9891906137a3565b610da29190613814565b9050600080875167ffffffffffffffff811115610dc257610dc1612894565b5b604051908082528060200260200182016040528015610df05781602001602082028036833780820191505090505b5090506000885167ffffffffffffffff811115610e1057610e0f612894565b5b604051908082528060200260200182016040528015610e3e5781602001602082028036833780820191505090505b50905060005b8951811015610f8e57600060648a8381518110610e6457610e636133b9565b5b602002602001015187610e7791906137a3565b610e819190613814565b90508a8281518110610e9657610e956133b9565b5b602002602001015173ffffffffffffffffffffffffffffffffffffffff166108fc829081150290604051600060405180830381858888f19350505050158015610ee3573d6000803e3d6000fd5b508085610ef09190613417565b945080848381518110610f0657610f056133b9565b5b6020026020010181815250508a8281518110610f2557610f246133b9565b5b6020026020010151838381518110610f4057610f3f6133b9565b5b602002602001019073ffffffffffffffffffffffffffffffffffffffff16908173ffffffffffffffffffffffffffffffffffffffff1681525050508080610f869061344b565b915050610e44565b50600b60009054906101000a900473ffffffffffffffffffffffffffffffffffffffff1673ffffffffffffffffffffffffffffffffffffffff166108fc8434610fd79190613845565b9081150290604051600060405180830381858888f19350505050158015611002573d6000803e3d6000fd5b50847ff60f606a88786922d5bc1e8793896524a1f5acc983237946ab5595acbe501841888b8b60405161103793929190613879565b60405180910390a2847fdc603325485f268be54b319006b2878134a93cbdf2353ce50a5f03559925c85582846040516110719291906138c5565b60405180910390a2505050505050505050565b606061108f82611548565b6000611099611c29565b905060008151116110b957604051806020016040528060008152506110e4565b806110c384611c40565b6040516020016110d4929190613938565b6040516020818303038152906040525b915050919050565b600b60009054906101000a900473ffffffffffffffffffffffffffffffffffffffff1681565b6060600060076000848152602001908152602001600020805480602002602001604051908101604052809291908181526020016000905b828210156111db57838290600052602060002090600202016040518060400160405290816000820160009054906101000a900473ffffffffffffffffffffffffffffffffffffffff1673ffffffffffffffffffffffffffffffffffffffff1673ffffffffffffffffffffffffffffffffffffffff16815260200160018201548152505081526020019060010190611149565b5050505090506000815167ffffffffffffffff8111156111fe576111fd612894565b5b60405190808252806020026020018201604052801561122c5781602001602082028036833780820191505090505b50905060005b825181101561128c5782818151811061124e5761124d6133b9565b5b60200260200101516020015182828151811061126d5761126c6133b9565b5b60200260200101818152505080806112849061344b565b915050611232565b508092505050919050565b6000600560008473ffffffffffffffffffffffffffffffffffffffff1673ffffffffffffffffffffffffffffffffffffffff16815260200190815260200160002060008373ffffffffffffffffffffffffffffffffffffffff1673ffffffffffffffffffffffffffffffffffffffff16815260200190815260200160002060009054906101000a900460ff16905092915050565b6060600060076000848152602001908152602001600020805480602002602001604051908101604052809291908181526020016000905b828210156113f457838290600052602060002090600202016040518060400160405290816000820160009054906101000a900473ffffffffffffffffffffffffffffffffffffffff1673ffffffffffffffffffffffffffffffffffffffff1673ffffffffffffffffffffffffffffffffffffffff16815260200160018201548152505081526020019060010190611362565b5050505090506000815167ffffffffffffffff81111561141757611416612894565b5b6040519080825280602002602001820160405280156114455781602001602082028036833780820191505090505b50905060005b82518110156114d357828181518110611467576114666133b9565b5b602002602001015160000151828281518110611486576114856133b9565b5b602002602001019073ffffffffffffffffffffffffffffffffffffffff16908173ffffffffffffffffffffffffffffffffffffffff168152505080806114cb9061344b565b91505061144b565b508092505050919050565b60007f01ffc9a7000000000000000000000000000000000000000000000000000000007bffffffffffffffffffffffffffffffffffffffffffffffffffffffff1916827bffffffffffffffffffffffffffffffffffffffffffffffffffffffff1916149050919050565b61155181611d0e565b611590576040517f08c379a000000000000000000000000000000000000000000000000000000000815260040161158790613177565b60405180910390fd5b50565b600033905090565b816004600083815260200190815260200160002060006101000a81548173ffffffffffffffffffffffffffffffffffffffff021916908373ffffffffffffffffffffffffffffffffffffffff160217905550808273ffffffffffffffffffffffffffffffffffffffff1661160e83610893565b73ffffffffffffffffffffffffffffffffffffffff167f8c5be1e5ebec7d5bd14f71427d1e84f3dd0314c0f7b2291e5b200ac8c7c3b92560405160405180910390a45050565b60008061166083610893565b90508073ffffffffffffffffffffffffffffffffffffffff168473ffffffffffffffffffffffffffffffffffffffff1614806116a257506116a18185611297565b5b806116e057508373ffffffffffffffffffffffffffffffffffffffff166116c884610611565b73ffffffffffffffffffffffffffffffffffffffff16145b91505092915050565b8273ffffffffffffffffffffffffffffffffffffffff1661170982610893565b73ffffffffffffffffffffffffffffffffffffffff161461175f576040517f08c379a0000000000000000000000000000000000000000000000000000000008152600401611756906139ce565b60405180910390fd5b600073ffffffffffffffffffffffffffffffffffffffff168273ffffffffffffffffffffffffffffffffffffffff16036117ce576040517f08c379a00000000000000000000000000000000000000000000000000000000081526004016117c590613a60565b60405180910390fd5b6117db8383836001611d4f565b8273ffffffffffffffffffffffffffffffffffffffff166117fb82610893565b73ffffffffffffffffffffffffffffffffffffffff1614611851576040517f08c379a0000000000000000000000000000000000000000000000000000000008152600401611848906139ce565b60405180910390fd5b6004600082815260200190815260200160002060006101000a81549073ffffffffffffffffffffffffffffffffffffffff02191690556001600360008573ffffffffffffffffffffffffffffffffffffffff1673ffffffffffffffffffffffffffffffffffffffff168152602001908152602001600020600082825403925050819055506001600360008473ffffffffffffffffffffffffffffffffffffffff1673ffffffffffffffffffffffffffffffffffffffff16815260200190815260200160002060008282540192505081905550816002600083815260200190815260200160002060006101000a81548173ffffffffffffffffffffffffffffffffffffffff021916908373ffffffffffffffffffffffffffffffffffffffff160217905550808273ffffffffffffffffffffffffffffffffffffffff168473ffffffffffffffffffffffffffffffffffffffff167fddf252ad1be2c89b69c2b068fc378daa952ba7f163c4a11628f55a4df523b3ef60405160405180910390a46119dd8383836001611d6c565b505050565b60006002600083815260200190815260200160002060009054906101000a900473ffffffffffffffffffffffffffffffffffffffff169050919050565b8173ffffffffffffffffffffffffffffffffffffffff168373ffffffffffffffffffffffffffffffffffffffff1603611a8d576040517f08c379a0000000000000000000000000000000000000000000000000000000008152600401611a8490613acc565b60405180910390fd5b80600560008573ffffffffffffffffffffffffffffffffffffffff1673ffffffffffffffffffffffffffffffffffffffff16815260200190815260200160002060008473ffffffffffffffffffffffffffffffffffffffff1673ffffffffffffffffffffffffffffffffffffffff16815260200190815260200160002060006101000a81548160ff0219169083151502179055508173ffffffffffffffffffffffffffffffffffffffff168373ffffffffffffffffffffffffffffffffffffffff167f17307eab39ab6107e8899845ad3d59bd9653f200f220920489ca2b5937696c3183604051611b7e919061257c565b60405180910390a3505050565b611b968484846116e9565b611ba284848484611d72565b611be1576040517f08c379a0000000000000000000000000000000000000000000000000000000008152600401611bd890613b5e565b60405180910390fd5b50505050565b600081600001549050919050565b611c0f828260405180602001604052806000815250611ef9565b5050565b6001816000016000828254019250508190555050565b606060405180602001604052806000815250905090565b606060006001611c4f84611f54565b01905060008167ffffffffffffffff811115611c6e57611c6d612894565b5b6040519080825280601f01601f191660200182016040528015611ca05781602001600182028036833780820191505090505b509050600082602001820190505b600115611d03578080600190039150507f3031323334353637383961626364656600000000000000000000000000000000600a86061a8153600a8581611cf757611cf66137e5565b5b04945060008503611cae575b819350505050919050565b60008073ffffffffffffffffffffffffffffffffffffffff16611d30836119e2565b73ffffffffffffffffffffffffffffffffffffffff1614159050919050565b611d5b848484846120a7565b611d668484846120ad565b50505050565b50505050565b6000611d938473ffffffffffffffffffffffffffffffffffffffff16612288565b15611eec578373ffffffffffffffffffffffffffffffffffffffff1663150b7a02611dbc611593565b8786866040518563ffffffff1660e01b8152600401611dde9493929190613bd3565b6020604051808303816000875af1925050508015611e1a57506040513d601f19601f82011682018060405250810190611e179190613c34565b60015b611e9c573d8060008114611e4a576040519150601f19603f3d011682016040523d82523d6000602084013e611e4f565b606091505b506000815103611e94576040517f08c379a0000000000000000000000000000000000000000000000000000000008152600401611e8b90613b5e565b60405180910390fd5b805181602001fd5b63150b7a0260e01b7bffffffffffffffffffffffffffffffffffffffffffffffffffffffff1916817bffffffffffffffffffffffffffffffffffffffffffffffffffffffff191614915050611ef1565b600190505b949350505050565b611f0383836122ab565b611f106000848484611d72565b611f4f576040517f08c379a0000000000000000000000000000000000000000000000000000000008152600401611f4690613b5e565b60405180910390fd5b505050565b600080600090507a184f03e93ff9f4daa797ed6e38ed64bf6a1f0100000000000000008310611fb2577a184f03e93ff9f4daa797ed6e38ed64bf6a1f0100000000000000008381611fa857611fa76137e5565b5b0492506040810190505b6d04ee2d6d415b85acef81000000008310611fef576d04ee2d6d415b85acef81000000008381611fe557611fe46137e5565b5b0492506020810190505b662386f26fc10000831061201e57662386f26fc100008381612014576120136137e5565b5b0492506010810190505b6305f5e1008310612047576305f5e100838161203d5761203c6137e5565b5b0492506008810190505b612710831061206c576127108381612062576120616137e5565b5b0492506004810190505b6064831061208f5760648381612085576120846137e5565b5b0492506002810190505b600a831061209e576001810190505b80915050919050565b50505050565b600073ffffffffffffffffffffffffffffffffffffffff168373ffffffffffffffffffffffffffffffffffffffff16146121e8576000600960008573ffffffffffffffffffffffffffffffffffffffff1673ffffffffffffffffffffffffffffffffffffffff168152602001908152602001600020905060005b81805490508110156121e55782828281548110612147576121466133b9565b5b9060005260206000200154036121d25781600183805490506121699190613845565b8154811061217a576121796133b9565b5b9060005260206000200154828281548110612198576121976133b9565b5b9060005260206000200181905550818054806121b7576121b6613c61565b5b600190038181906000526020600020016000905590556121e5565b80806121dd9061344b565b915050612127565b50505b600073ffffffffffffffffffffffffffffffffffffffff168273ffffffffffffffffffffffffffffffffffffffff161461228357600960008373ffffffffffffffffffffffffffffffffffffffff1673ffffffffffffffffffffffffffffffffffffffff1681526020019081526020016000208190806001815401808255809150506001900390600052602060002001600090919091909150555b505050565b6000808273ffffffffffffffffffffffffffffffffffffffff163b119050919050565b600073ffffffffffffffffffffffffffffffffffffffff168273ffffffffffffffffffffffffffffffffffffffff160361231a576040517f08c379a000000000000000000000000000000000000000000000000000000000815260040161231190613cdc565b60405180910390fd5b61232381611d0e565b15612363576040517f08c379a000000000000000000000000000000000000000000000000000000000815260040161235a90613d48565b60405180910390fd5b612371600083836001611d4f565b61237a81611d0e565b156123ba576040517f08c379a00000000000000000000000000000000000000000000000000000000081526004016123b190613d48565b60405180910390fd5b6001600360008473ffffffffffffffffffffffffffffffffffffffff1673ffffffffffffffffffffffffffffffffffffffff16815260200190815260200160002060008282540192505081905550816002600083815260200190815260200160002060006101000a81548173ffffffffffffffffffffffffffffffffffffffff021916908373ffffffffffffffffffffffffffffffffffffffff160217905550808273ffffffffffffffffffffffffffffffffffffffff16600073ffffffffffffffffffffffffffffffffffffffff167fddf252ad1be2c89b69c2b068fc378daa952ba7f163c4a11628f55a4df523b3ef60405160405180910390a46124c4600083836001611d6c565b5050565b6000604051905090565b600080fd5b600080fd5b60007fffffffff0000000000000000000000000000000000000000000000000000000082169050919050565b612511816124dc565b811461251c57600080fd5b50565b60008135905061252e81612508565b92915050565b60006020828403121561254a576125496124d2565b5b60006125588482850161251f565b91505092915050565b60008115159050919050565b61257681612561565b82525050565b6000602082019050612591600083018461256d565b92915050565b600081519050919050565b600082825260208201905092915050565b60005b838110156125d15780820151818401526020810190506125b6565b60008484015250505050565b6000601f19601f8301169050919050565b60006125f982612597565b61260381856125a2565b93506126138185602086016125b3565b61261c816125dd565b840191505092915050565b6000602082019050818103600083015261264181846125ee565b905092915050565b6000819050919050565b61265c81612649565b811461266757600080fd5b50565b60008135905061267981612653565b92915050565b600060208284031215612695576126946124d2565b5b60006126a38482850161266a565b91505092915050565b600073ffffffffffffffffffffffffffffffffffffffff82169050919050565b60006126d7826126ac565b9050919050565b6126e7816126cc565b82525050565b600060208201905061270260008301846126de565b92915050565b612711816126cc565b811461271c57600080fd5b50565b60008135905061272e81612708565b92915050565b6000806040838503121561274b5761274a6124d2565b5b60006127598582860161271f565b925050602061276a8582860161266a565b9150509250929050565b60008060006060848603121561278d5761278c6124d2565b5b600061279b8682870161271f565b93505060206127ac8682870161271f565b92505060406127bd8682870161266a565b9150509250925092565b6000602082840312156127dd576127dc6124d2565b5b60006127eb8482850161271f565b91505092915050565b6127fd81612649565b82525050565b600060208201905061281860008301846127f4565b92915050565b61282781612561565b811461283257600080fd5b50565b6000813590506128448161281e565b92915050565b60008060408385031215612861576128606124d2565b5b600061286f8582860161271f565b925050602061288085828601612835565b9150509250929050565b600080fd5b600080fd5b7f4e487b7100000000000000000000000000000000000000000000000000000000600052604160045260246000fd5b6128cc826125dd565b810181811067ffffffffffffffff821117156128eb576128ea612894565b5b80604052505050565b60006128fe6124c8565b905061290a82826128c3565b919050565b600067ffffffffffffffff82111561292a57612929612894565b5b612933826125dd565b9050602081019050919050565b82818337600083830152505050565b600061296261295d8461290f565b6128f4565b90508281526020810184848401111561297e5761297d61288f565b5b612989848285612940565b509392505050565b600082601f8301126129a6576129a561288a565b5b81356129b684826020860161294f565b91505092915050565b600080600080608085870312156129d9576129d86124d2565b5b60006129e78782880161271f565b94505060206129f88782880161271f565b9350506040612a098782880161266a565b925050606085013567ffffffffffffffff811115612a2a57612a296124d7565b5b612a3687828801612991565b91505092959194509250565b600067ffffffffffffffff821115612a5d57612a5c612894565b5b602082029050602081019050919050565b600080fd5b6000612a86612a8184612a42565b6128f4565b90508083825260208201905060208402830185811115612aa957612aa8612a6e565b5b835b81811015612ad25780612abe888261271f565b845260208401935050602081019050612aab565b5050509392505050565b600082601f830112612af157612af061288a565b5b8135612b01848260208601612a73565b91505092915050565b600067ffffffffffffffff821115612b2557612b24612894565b5b602082029050602081019050919050565b6000612b49612b4484612b0a565b6128f4565b90508083825260208201905060208402830185811115612b6c57612b6b612a6e565b5b835b81811015612b955780612b81888261266a565b845260208401935050602081019050612b6e565b5050509392505050565b600082601f830112612bb457612bb361288a565b5b8135612bc4848260208601612b36565b91505092915050565b600067ffffffffffffffff821115612be857612be7612894565b5b612bf1826125dd565b9050602081019050919050565b6000612c11612c0c84612bcd565b6128f4565b905082815260208101848484011115612c2d57612c2c61288f565b5b612c38848285612940565b509392505050565b600082601f830112612c5557612c5461288a565b5b8135612c65848260208601612bfe565b91505092915050565b600080600060608486031215612c8757612c866124d2565b5b600084013567ffffffffffffffff811115612ca557612ca46124d7565b5b612cb186828701612adc565b935050602084013567ffffffffffffffff811115612cd257612cd16124d7565b5b612cde86828701612b9f565b925050604084013567ffffffffffffffff811115612cff57612cfe6124d7565b5b612d0b86828701612c40565b9150509250925092565b600081519050919050565b600082825260208201905092915050565b6000819050602082019050919050565b612d4a81612649565b82525050565b6000612d5c8383612d41565b60208301905092915050565b6000602082019050919050565b6000612d8082612d15565b612d8a8185612d20565b9350612d9583612d31565b8060005b83811015612dc6578151612dad8882612d50565b9750612db883612d68565b925050600181019050612d99565b5085935050505092915050565b60006020820190508181036000830152612ded8184612d75565b905092915050565b60008060408385031215612e0c57612e0b6124d2565b5b6000612e1a8582860161271f565b9250506020612e2b8582860161271f565b9150509250929050565b600081519050919050565b600082825260208201905092915050565b6000819050602082019050919050565b612e6a816126cc565b82525050565b6000612e7c8383612e61565b60208301905092915050565b6000602082019050919050565b6000612ea082612e35565b612eaa8185612e40565b9350612eb583612e51565b8060005b83811015612ee6578151612ecd8882612e70565b9750612ed883612e88565b925050600181019050612eb9565b5085935050505092915050565b60006020820190508181036000830152612f0d8184612e95565b905092915050565b7f4e487b7100000000000000000000000000000000000000000000000000000000600052602260045260246000fd5b60006002820490506001821680612f5c57607f821691505b602082108103612f6f57612f6e612f15565b5b50919050565b7f4552433732313a20617070726f76616c20746f2063757272656e74206f776e6560008201527f7200000000000000000000000000000000000000000000000000000000000000602082015250565b6000612fd16021836125a2565b9150612fdc82612f75565b604082019050919050565b6000602082019050818103600083015261300081612fc4565b9050919050565b7f4552433732313a20617070726f76652063616c6c6572206973206e6f7420746f60008201527f6b656e206f776e6572206f7220617070726f76656420666f7220616c6c000000602082015250565b6000613063603d836125a2565b915061306e82613007565b604082019050919050565b6000602082019050818103600083015261309281613056565b9050919050565b7f4552433732313a2063616c6c6572206973206e6f7420746f6b656e206f776e6560008201527f72206f7220617070726f76656400000000000000000000000000000000000000602082015250565b60006130f5602d836125a2565b915061310082613099565b604082019050919050565b60006020820190508181036000830152613124816130e8565b9050919050565b7f4552433732313a20696e76616c696420746f6b656e2049440000000000000000600082015250565b60006131616018836125a2565b915061316c8261312b565b602082019050919050565b6000602082019050818103600083015261319081613154565b9050919050565b7f4552433732313a2061646472657373207a65726f206973206e6f74206120766160008201527f6c6964206f776e65720000000000000000000000000000000000000000000000602082015250565b60006131f36029836125a2565b91506131fe82613197565b604082019050919050565b60006020820190508181036000830152613222816131e6565b9050919050565b7f4174206c65617374206f6e65207265666572656e63656420617274697374206160008201527f6464726573732069732072657175697265640000000000000000000000000000602082015250565b60006132856032836125a2565b915061329082613229565b604082019050919050565b600060208201905081810360008301526132b481613278565b9050919050565b7f4172746973742061646472657373657320616e64206f776e657273686970207060008201527f657263656e7461676573206c656e677468206d69736d61746368000000000000602082015250565b6000613317603a836125a2565b9150613322826132bb565b604082019050919050565b600060208201905081810360008301526133468161330a565b9050919050565b7f46656520726571756972656420746f206d696e74204149417274000000000000600082015250565b6000613383601a836125a2565b915061338e8261334d565b602082019050919050565b600060208201905081810360008301526133b281613376565b9050919050565b7f4e487b7100000000000000000000000000000000000000000000000000000000600052603260045260246000fd5b7f4e487b7100000000000000000000000000000000000000000000000000000000600052601160045260246000fd5b600061342282612649565b915061342d83612649565b9250828201905080821115613445576134446133e8565b5b92915050565b600061345682612649565b91507fffffffffffffffffffffffffffffffffffffffffffffffffffffffffffffffff8203613488576134876133e8565b5b600182019050919050565b7f546f74616c206f776e6572736869702070657263656e746167652073686f756c60008201527f6420626520313030000000000000000000000000000000000000000000000000602082015250565b60006134ef6028836125a2565b91506134fa82613493565b604082019050919050565b6000602082019050818103600083015261351e816134e2565b9050919050565b60008190508160005260206000209050919050565b60006020601f8301049050919050565b600082821b905092915050565b6000600883026135877fffffffffffffffffffffffffffffffffffffffffffffffffffffffffffffffff8261354a565b613591868361354a565b95508019841693508086168417925050509392505050565b6000819050919050565b60006135ce6135c96135c484612649565b6135a9565b612649565b9050919050565b6000819050919050565b6135e8836135b3565b6135fc6135f4826135d5565b848454613557565b825550505050565b600090565b613611613604565b61361c8184846135df565b505050565b5b8181101561364057613635600082613609565b600181019050613622565b5050565b601f8211156136855761365681613525565b61365f8461353a565b8101602085101561366e578190505b61368261367a8561353a565b830182613621565b50505b505050565b600082821c905092915050565b60006136a86000198460080261368a565b1980831691505092915050565b60006136c18383613697565b9150826002028217905092915050565b6136da82612597565b67ffffffffffffffff8111156136f3576136f2612894565b5b6136fd8254612f44565b613708828285613644565b600060209050601f83116001811461373b5760008415613729578287015190505b61373385826136b5565b86555061379b565b601f19841661374986613525565b60005b828110156137715784890151825560018201915060208501945060208101905061374c565b8683101561378e578489015161378a601f891682613697565b8355505b6001600288020188555050505b505050505050565b60006137ae82612649565b91506137b983612649565b92508282026137c781612649565b915082820484148315176137de576137dd6133e8565b5b5092915050565b7f4e487b7100000000000000000000000000000000000000000000000000000000600052601260045260246000fd5b600061381f82612649565b915061382a83612649565b92508261383a576138396137e5565b5b828204905092915050565b600061385082612649565b915061385b83612649565b9250828203905081811115613873576138726133e8565b5b92915050565b6000606082019050818103600083015261389381866125ee565b905081810360208301526138a78185612e95565b905081810360408301526138bb8184612d75565b9050949350505050565b600060408201905081810360008301526138df8185612e95565b905081810360208301526138f38184612d75565b90509392505050565b600081905092915050565b600061391282612597565b61391c81856138fc565b935061392c8185602086016125b3565b80840191505092915050565b60006139448285613907565b91506139508284613907565b91508190509392505050565b7f4552433732313a207472616e736665722066726f6d20696e636f72726563742060008201527f6f776e6572000000000000000000000000000000000000000000000000000000602082015250565b60006139b86025836125a2565b91506139c38261395c565b604082019050919050565b600060208201905081810360008301526139e7816139ab565b9050919050565b7f4552433732313a207472616e7366657220746f20746865207a65726f2061646460008201527f7265737300000000000000000000000000000000000000000000000000000000602082015250565b6000613a4a6024836125a2565b9150613a55826139ee565b604082019050919050565b60006020820190508181036000830152613a7981613a3d565b9050919050565b7f4552433732313a20617070726f766520746f2063616c6c657200000000000000600082015250565b6000613ab66019836125a2565b9150613ac182613a80565b602082019050919050565b60006020820190508181036000830152613ae581613aa9565b9050919050565b7f4552433732313a207472616e7366657220746f206e6f6e20455243373231526560008201527f63656976657220696d706c656d656e7465720000000000000000000000000000602082015250565b6000613b486032836125a2565b9150613b5382613aec565b604082019050919050565b60006020820190508181036000830152613b7781613b3b565b9050919050565b600081519050919050565b600082825260208201905092915050565b6000613ba582613b7e565b613baf8185613b89565b9350613bbf8185602086016125b3565b613bc8816125dd565b840191505092915050565b6000608082019050613be860008301876126de565b613bf560208301866126de565b613c0260408301856127f4565b8181036060830152613c148184613b9a565b905095945050505050565b600081519050613c2e81612508565b92915050565b600060208284031215613c4a57613c496124d2565b5b6000613c5884828501613c1f565b91505092915050565b7f4e487b7100000000000000000000000000000000000000000000000000000000600052603160045260246000fd5b7f4552433732313a206d696e7420746f20746865207a65726f2061646472657373600082015250565b6000613cc66020836125a2565b9150613cd182613c90565b602082019050919050565b60006020820190508181036000830152613cf581613cb9565b9050919050565b7f4552433732313a20746f6b656e20616c7265616479206d696e74656400000000600082015250565b6000613d32601c836125a2565b9150613d3d82613cfc565b602082019050919050565b60006020820190508181036000830152613d6181613d25565b905091905056fea26469706673582212205e04a7a76cdcba850beeb0b6e8e15b31325e9f5fa06f721bcd735924224312a364736f6c63430008130033",
  "immutableReferences": {},
  "source": "pragma solidity ^0.8.0;\n\nimport \"@openzeppelin/contracts/token/ERC721/ERC721.sol\";\nimport \"@openzeppelin/contracts/utils/Counters.sol\";\n\ncontract AIArtFractionalNFT is ERC721 {\n    \n    struct Artist {\n        address artistAddress;\n        uint256 ownershipPercentage;\n    }\n\n    using Counters for Counters.Counter;\n    Counters.Counter private _tokenIdCounter;\n\n    mapping(uint256 => Artist[]) private artistList;\n    mapping(uint256 => string) private imageHashList;\n    mapping(address => uint256[]) private ownedTokens;\n\n    uint256 private feePercentage = 5;\n    address public contractOwner;\n\n    event ArtMinted(uint256 indexed tokenId, string imageHash, address[] artistAddresses, uint256[] ownershipPercentages);\n    event FeesDistributed(uint256 indexed tokenId, address[] artistAddresses, uint256[] distributedAmounts);\n\n    constructor(string memory name, string memory symbol) ERC721(name, symbol) {\n        contractOwner = msg.sender;\n    }\n\n    function mintAIArt(address[] memory artistAddresses, uint256[] memory ownershipPercentages, string memory imageHash) public payable {\n        require(artistAddresses.length > 0, \"At least one referenced artist address is required\");\n        require(artistAddresses.length == ownershipPercentages.length, \"Artist addresses and ownership percentages length mismatch\");\n        require(msg.value > 0, \"Fee required to mint AIArt\");\n\n        // Calculate total ownership percentage\n        uint256 totalOwnershipPercentage;\n        for(uint256 i = 0; i < ownershipPercentages.length; i++) {\n            totalOwnershipPercentage += ownershipPercentages[i];\n        }\n        require(totalOwnershipPercentage == 100, \"Total ownership percentage should be 100\");\n\n        uint256 tokenId = _tokenIdCounter.current();\n        _safeMint(msg.sender, tokenId);\n        _tokenIdCounter.increment();\n\n        for(uint256 i = 0; i < artistAddresses.length; i++) {\n            artistList[tokenId].push(Artist(artistAddresses[i], ownershipPercentages[i]));\n        }\n        imageHashList[tokenId] = imageHash;\n\n        // Calculate and distribute fees\n        uint256 fees = msg.value * feePercentage / 100;\n        uint256 distributedFees;\n        uint256[] memory distributedAmounts = new uint256[](artistAddresses.length);\n        address[] memory distributedArtists = new address[](artistAddresses.length);\n\n        for(uint256 i = 0; i < artistAddresses.length; i++) {\n            uint256 artistFee = fees * ownershipPercentages[i] / 100;\n            payable(artistAddresses[i]).transfer(artistFee);\n            distributedFees += artistFee;\n            distributedAmounts[i] = artistFee;\n            distributedArtists[i] = artistAddresses[i];\n        }\n\n        payable(contractOwner).transfer(msg.value - distributedFees);\n\n        emit ArtMinted(tokenId, imageHash, artistAddresses, ownershipPercentages);\n        emit FeesDistributed(tokenId, distributedArtists, distributedAmounts);\n    }\n\n    function getArtistList(uint256 tokenId) public view returns (address[] memory) {\n        Artist[] memory artists = artistList[tokenId];\n        address[] memory artistAddresses = new address[](artists.length);\n\n        for(uint256 i = 0; i < artists.length; i++) {\n            artistAddresses[i] = artists[i].artistAddress;\n        }\n\n        return artistAddresses;\n    }\n\n    function getOwnershipPercentageList(uint256 tokenId) public view returns (uint256[] memory) {\n        Artist[] memory artists = artistList[tokenId];\n        uint256[] memory ownershipPercentages = new uint256[](artists.length);\n\n        for(uint256 i = 0; i < artists.length; i++) {\n            ownershipPercentages[i] = artists[i].ownershipPercentage;\n        }\n\n        return ownershipPercentages;\n    }\n\n    function getImageHash(uint256 tokenId) public view returns (string memory) {\n        return imageHashList[tokenId];\n    }\n\n    function _beforeTokenTransfer(address from, address to, uint256 tokenId, uint256 batchSize) internal virtual override {\n        super._beforeTokenTransfer(from, to, tokenId, batchSize);\n        _updateOwnedTokens(from, to, tokenId);\n    }\n\n    function _updateOwnedTokens(address from, address to, uint256 tokenId) internal virtual {\n        if(from != address(0)) {\n            uint256[] storage fromTokenList = ownedTokens[from];\n            for(uint256 i = 0; i < fromTokenList.length; i++) {\n                if(fromTokenList[i] == tokenId) {\n                    fromTokenList[i] = fromTokenList[fromTokenList.length - 1];\n                    fromTokenList.pop();\n                    break;\n                }\n            }\n        }\n\n        if(to != address(0)) {\n            ownedTokens[to].push(tokenId);\n        }\n    }\n}",
  "sourcePath": "/Users/bury.huang/git/webapp/tribute/contracts/arts.sol",
  "compiler": {
    "name": "solc",
    "version": "0.8.19+commit.7dd6d404.Emscripten.clang"
  },
  "schemaVersion": "3.4.2",
  "updatedAt": "2023-03-25T00:34:04.831Z",
  "devdoc": {
    "events": {
      "Approval(address,address,uint256)": {
        "details": "Emitted when `owner` enables `approved` to manage the `tokenId` token."
      },
      "ApprovalForAll(address,address,bool)": {
        "details": "Emitted when `owner` enables or disables (`approved`) `operator` to manage all of its assets."
      },
      "Transfer(address,address,uint256)": {
        "details": "Emitted when `tokenId` token is transferred from `from` to `to`."
      }
    },
    "kind": "dev",
    "methods": {
      "approve(address,uint256)": {
        "details": "See {IERC721-approve}."
      },
      "balanceOf(address)": {
        "details": "See {IERC721-balanceOf}."
      },
      "getApproved(uint256)": {
        "details": "See {IERC721-getApproved}."
      },
      "isApprovedForAll(address,address)": {
        "details": "See {IERC721-isApprovedForAll}."
      },
      "name()": {
        "details": "See {IERC721Metadata-name}."
      },
      "ownerOf(uint256)": {
        "details": "See {IERC721-ownerOf}."
      },
      "safeTransferFrom(address,address,uint256)": {
        "details": "See {IERC721-safeTransferFrom}."
      },
      "safeTransferFrom(address,address,uint256,bytes)": {
        "details": "See {IERC721-safeTransferFrom}."
      },
      "setApprovalForAll(address,bool)": {
        "details": "See {IERC721-setApprovalForAll}."
      },
      "supportsInterface(bytes4)": {
        "details": "See {IERC165-supportsInterface}."
      },
      "symbol()": {
        "details": "See {IERC721Metadata-symbol}."
      },
      "tokenURI(uint256)": {
        "details": "See {IERC721Metadata-tokenURI}."
      },
      "transferFrom(address,address,uint256)": {
        "details": "See {IERC721-transferFrom}."
      }
    },
    "version": 1
  },
  "userdoc": {
    "kind": "user",
    "methods": {},
    "version": 1
  }
}