{
  "contractName": "AIGeneratedArt",
  "abi": [
    {
      "inputs": [
        {
          "internalType": "string",
          "name": "_name",
          "type": "string"
        },
        {
          "internalType": "string",
          "name": "_symbol",
          "type": "string"
        },
        {
          "internalType": "uint256",
          "name": "_fee",
          "type": "uint256"
        },
        {
          "internalType": "address",
          "name": "_referenceArtistsContract",
          "type": "address"
        }
      ],
      "stateMutability": "nonpayable",
      "type": "constructor"
    },
    {
      "anonymous": false,
      "inputs": [
        {
          "indexed": true,
          "internalType": "address",
          "name": "owner",
          "type": "address"
        },
        {
          "indexed": true,
          "internalType": "address",
          "name": "approved",
          "type": "address"
        },
        {
          "indexed": true,
          "internalType": "uint256",
          "name": "tokenId",
          "type": "uint256"
        }
      ],
      "name": "Approval",
      "type": "event"
    },
    {
      "anonymous": false,
      "inputs": [
        {
          "indexed": true,
          "internalType": "address",
          "name": "owner",
          "type": "address"
        },
        {
          "indexed": true,
          "internalType": "address",
          "name": "operator",
          "type": "address"
        },
        {
          "indexed": false,
          "internalType": "bool",
          "name": "approved",
          "type": "bool"
        }
      ],
      "name": "ApprovalForAll",
      "type": "event"
    },
    {
      "anonymous": false,
      "inputs": [
        {
          "indexed": true,
          "internalType": "address",
          "name": "from",
          "type": "address"
        },
        {
          "indexed": true,
          "internalType": "address",
          "name": "to",
          "type": "address"
        },
        {
          "indexed": true,
          "internalType": "uint256",
          "name": "tokenId",
          "type": "uint256"
        }
      ],
      "name": "Transfer",
      "type": "event"
    },
    {
      "inputs": [
        {
          "internalType": "address",
          "name": "to",
          "type": "address"
        },
        {
          "internalType": "uint256",
          "name": "tokenId",
          "type": "uint256"
        }
      ],
      "name": "approve",
      "outputs": [],
      "stateMutability": "nonpayable",
      "type": "function"
    },
    {
      "inputs": [
        {
          "internalType": "uint256",
          "name": "",
          "type": "uint256"
        }
      ],
      "name": "arts",
      "outputs": [
        {
          "internalType": "bytes",
          "name": "image",
          "type": "bytes"
        }
      ],
      "stateMutability": "view",
      "type": "function"
    },
    {
      "inputs": [
        {
          "internalType": "address",
          "name": "owner",
          "type": "address"
        }
      ],
      "name": "balanceOf",
      "outputs": [
        {
          "internalType": "uint256",
          "name": "",
          "type": "uint256"
        }
      ],
      "stateMutability": "view",
      "type": "function"
    },
    {
      "inputs": [],
      "name": "fee",
      "outputs": [
        {
          "internalType": "uint256",
          "name": "",
          "type": "uint256"
        }
      ],
      "stateMutability": "view",
      "type": "function"
    },
    {
      "inputs": [
        {
          "internalType": "uint256",
          "name": "tokenId",
          "type": "uint256"
        }
      ],
      "name": "getApproved",
      "outputs": [
        {
          "internalType": "address",
          "name": "",
          "type": "address"
        }
      ],
      "stateMutability": "view",
      "type": "function"
    },
    {
      "inputs": [
        {
          "internalType": "address",
          "name": "owner",
          "type": "address"
        },
        {
          "internalType": "address",
          "name": "operator",
          "type": "address"
        }
      ],
      "name": "isApprovedForAll",
      "outputs": [
        {
          "internalType": "bool",
          "name": "",
          "type": "bool"
        }
      ],
      "stateMutability": "view",
      "type": "function"
    },
    {
      "inputs": [],
      "name": "name",
      "outputs": [
        {
          "internalType": "string",
          "name": "",
          "type": "string"
        }
      ],
      "stateMutability": "view",
      "type": "function"
    },
    {
      "inputs": [
        {
          "internalType": "uint256",
          "name": "tokenId",
          "type": "uint256"
        }
      ],
      "name": "ownerOf",
      "outputs": [
        {
          "internalType": "address",
          "name": "",
          "type": "address"
        }
      ],
      "stateMutability": "view",
      "type": "function"
    },
    {
      "inputs": [],
      "name": "referenceArtistsContract",
      "outputs": [
        {
          "internalType": "address",
          "name": "",
          "type": "address"
        }
      ],
      "stateMutability": "view",
      "type": "function"
    },
    {
      "inputs": [
        {
          "internalType": "address",
          "name": "from",
          "type": "address"
        },
        {
          "internalType": "address",
          "name": "to",
          "type": "address"
        },
        {
          "internalType": "uint256",
          "name": "tokenId",
          "type": "uint256"
        }
      ],
      "name": "safeTransferFrom",
      "outputs": [],
      "stateMutability": "nonpayable",
      "type": "function"
    },
    {
      "inputs": [
        {
          "internalType": "address",
          "name": "from",
          "type": "address"
        },
        {
          "internalType": "address",
          "name": "to",
          "type": "address"
        },
        {
          "internalType": "uint256",
          "name": "tokenId",
          "type": "uint256"
        },
        {
          "internalType": "bytes",
          "name": "data",
          "type": "bytes"
        }
      ],
      "name": "safeTransferFrom",
      "outputs": [],
      "stateMutability": "nonpayable",
      "type": "function"
    },
    {
      "inputs": [
        {
          "internalType": "address",
          "name": "operator",
          "type": "address"
        },
        {
          "internalType": "bool",
          "name": "approved",
          "type": "bool"
        }
      ],
      "name": "setApprovalForAll",
      "outputs": [],
      "stateMutability": "nonpayable",
      "type": "function"
    },
    {
      "inputs": [
        {
          "internalType": "bytes4",
          "name": "interfaceId",
          "type": "bytes4"
        }
      ],
      "name": "supportsInterface",
      "outputs": [
        {
          "internalType": "bool",
          "name": "",
          "type": "bool"
        }
      ],
      "stateMutability": "view",
      "type": "function"
    },
    {
      "inputs": [],
      "name": "symbol",
      "outputs": [
        {
          "internalType": "string",
          "name": "",
          "type": "string"
        }
      ],
      "stateMutability": "view",
      "type": "function"
    },
    {
      "inputs": [
        {
          "internalType": "uint256",
          "name": "tokenId",
          "type": "uint256"
        }
      ],
      "name": "tokenURI",
      "outputs": [
        {
          "internalType": "string",
          "name": "",
          "type": "string"
        }
      ],
      "stateMutability": "view",
      "type": "function"
    },
    {
      "inputs": [
        {
          "internalType": "address",
          "name": "from",
          "type": "address"
        },
        {
          "internalType": "address",
          "name": "to",
          "type": "address"
        },
        {
          "internalType": "uint256",
          "name": "tokenId",
          "type": "uint256"
        }
      ],
      "name": "transferFrom",
      "outputs": [],
      "stateMutability": "nonpayable",
      "type": "function"
    },
    {
      "inputs": [
        {
          "internalType": "bytes",
          "name": "_image",
          "type": "bytes"
        }
      ],
      "name": "mint",
      "outputs": [
        {
          "internalType": "uint256",
          "name": "",
          "type": "uint256"
        }
      ],
      "stateMutability": "payable",
      "type": "function"
    }
  ],
  "bytecode": "0x60806040523480156200001157600080fd5b5060405162003981380380620039818339818101604052810190620000379190620002e4565b838381600090816200004a9190620005d5565b5080600190816200005c9190620005d5565b5050508160078190555080600860006101000a81548173ffffffffffffffffffffffffffffffffffffffff021916908373ffffffffffffffffffffffffffffffffffffffff16021790555050505050620006bc565b6000604051905090565b600080fd5b600080fd5b600080fd5b600080fd5b6000601f19601f8301169050919050565b7f4e487b7100000000000000000000000000000000000000000000000000000000600052604160045260246000fd5b6200011a82620000cf565b810181811067ffffffffffffffff821117156200013c576200013b620000e0565b5b80604052505050565b600062000151620000b1565b90506200015f82826200010f565b919050565b600067ffffffffffffffff821115620001825762000181620000e0565b5b6200018d82620000cf565b9050602081019050919050565b60005b83811015620001ba5780820151818401526020810190506200019d565b60008484015250505050565b6000620001dd620001d78462000164565b62000145565b905082815260208101848484011115620001fc57620001fb620000ca565b5b620002098482856200019a565b509392505050565b600082601f830112620002295762000228620000c5565b5b81516200023b848260208601620001c6565b91505092915050565b6000819050919050565b620002598162000244565b81146200026557600080fd5b50565b60008151905062000279816200024e565b92915050565b600073ffffffffffffffffffffffffffffffffffffffff82169050919050565b6000620002ac826200027f565b9050919050565b620002be816200029f565b8114620002ca57600080fd5b50565b600081519050620002de81620002b3565b92915050565b60008060008060808587031215620003015762000300620000bb565b5b600085015167ffffffffffffffff811115620003225762000321620000c0565b5b620003308782880162000211565b945050602085015167ffffffffffffffff811115620003545762000353620000c0565b5b620003628782880162000211565b9350506040620003758782880162000268565b92505060606200038887828801620002cd565b91505092959194509250565b600081519050919050565b7f4e487b7100000000000000000000000000000000000000000000000000000000600052602260045260246000fd5b60006002820490506001821680620003e757607f821691505b602082108103620003fd57620003fc6200039f565b5b50919050565b60008190508160005260206000209050919050565b60006020601f8301049050919050565b600082821b905092915050565b600060088302620004677fffffffffffffffffffffffffffffffffffffffffffffffffffffffffffffffff8262000428565b62000473868362000428565b95508019841693508086168417925050509392505050565b6000819050919050565b6000620004b6620004b0620004aa8462000244565b6200048b565b62000244565b9050919050565b6000819050919050565b620004d28362000495565b620004ea620004e182620004bd565b84845462000435565b825550505050565b600090565b62000501620004f2565b6200050e818484620004c7565b505050565b5b8181101562000536576200052a600082620004f7565b60018101905062000514565b5050565b601f82111562000585576200054f8162000403565b6200055a8462000418565b810160208510156200056a578190505b62000582620005798562000418565b83018262000513565b50505b505050565b600082821c905092915050565b6000620005aa600019846008026200058a565b1980831691505092915050565b6000620005c5838362000597565b9150826002028217905092915050565b620005e08262000394565b67ffffffffffffffff811115620005fc57620005fb620000e0565b5b620006088254620003ce565b620006158282856200053a565b600060209050601f8311600181146200064d576000841562000638578287015190505b620006448582620005b7565b865550620006b4565b601f1984166200065d8662000403565b60005b82811015620006875784890151825560018201915060208501945060208101905062000660565b86831015620006a75784890151620006a3601f89168262000597565b8355505b6001600288020188555050505b505050505050565b6132b580620006cc6000396000f3fe6080604052600436106100fe5760003560e01c806370a0823111610095578063b88d4fde11610064578063b88d4fde1461034c578063c87b56dd14610375578063ddca3f43146103b2578063e57a104a146103dd578063e985e9c51461041a576100fe565b806370a082311461028b5780637ba0e2e7146102c857806395d89b41146102f8578063a22cb46514610323576100fe565b806323b872dd116100d157806323b872dd146101d157806342842e0e146101fa57806359771a95146102235780636352211e1461024e576100fe565b806301ffc9a71461010357806306fdde0314610140578063081812fc1461016b578063095ea7b3146101a8575b600080fd5b34801561010f57600080fd5b5061012a60048036038101906101259190611e0a565b610457565b6040516101379190611e52565b60405180910390f35b34801561014c57600080fd5b50610155610539565b6040516101629190611efd565b60405180910390f35b34801561017757600080fd5b50610192600480360381019061018d9190611f55565b6105cb565b60405161019f9190611fc3565b60405180910390f35b3480156101b457600080fd5b506101cf60048036038101906101ca919061200a565b610611565b005b3480156101dd57600080fd5b506101f860048036038101906101f3919061204a565b610728565b005b34801561020657600080fd5b50610221600480360381019061021c919061204a565b610788565b005b34801561022f57600080fd5b506102386107a8565b6040516102459190611fc3565b60405180910390f35b34801561025a57600080fd5b5061027560048036038101906102709190611f55565b6107ce565b6040516102829190611fc3565b60405180910390f35b34801561029757600080fd5b506102b260048036038101906102ad919061209d565b610854565b6040516102bf91906120d9565b60405180910390f35b6102e260048036038101906102dd9190612229565b61090b565b6040516102ef91906120d9565b60405180910390f35b34801561030457600080fd5b5061030d610c06565b60405161031a9190611efd565b60405180910390f35b34801561032f57600080fd5b5061034a6004803603810190610345919061229e565b610c98565b005b34801561035857600080fd5b50610373600480360381019061036e91906122de565b610cae565b005b34801561038157600080fd5b5061039c60048036038101906103979190611f55565b610d10565b6040516103a99190611efd565b60405180910390f35b3480156103be57600080fd5b506103c7610d78565b6040516103d491906120d9565b60405180910390f35b3480156103e957600080fd5b5061040460048036038101906103ff9190611f55565b610d7e565b60405161041191906123b6565b60405180910390f35b34801561042657600080fd5b50610441600480360381019061043c91906123d8565b610e24565b60405161044e9190611e52565b60405180910390f35b60007f80ac58cd000000000000000000000000000000000000000000000000000000007bffffffffffffffffffffffffffffffffffffffffffffffffffffffff1916827bffffffffffffffffffffffffffffffffffffffffffffffffffffffff1916148061052257507f5b5e139f000000000000000000000000000000000000000000000000000000007bffffffffffffffffffffffffffffffffffffffffffffffffffffffff1916827bffffffffffffffffffffffffffffffffffffffffffffffffffffffff1916145b80610532575061053182610eb8565b5b9050919050565b60606000805461054890612447565b80601f016020809104026020016040519081016040528092919081815260200182805461057490612447565b80156105c15780601f10610596576101008083540402835291602001916105c1565b820191906000526020600020905b8154815290600101906020018083116105a457829003601f168201915b5050505050905090565b60006105d682610f22565b6004600083815260200190815260200160002060009054906101000a900473ffffffffffffffffffffffffffffffffffffffff169050919050565b600061061c826107ce565b90508073ffffffffffffffffffffffffffffffffffffffff168373ffffffffffffffffffffffffffffffffffffffff160361068c576040517f08c379a0000000000000000000000000000000000000000000000000000000008152600401610683906124ea565b60405180910390fd5b8073ffffffffffffffffffffffffffffffffffffffff166106ab610f6d565b73ffffffffffffffffffffffffffffffffffffffff1614806106da57506106d9816106d4610f6d565b610e24565b5b610719576040517f08c379a00000000000000000000000000000000000000000000000000000000081526004016107109061257c565b60405180910390fd5b6107238383610f75565b505050565b610739610733610f6d565b8261102e565b610778576040517f08c379a000000000000000000000000000000000000000000000000000000000815260040161076f9061260e565b60405180910390fd5b6107838383836110c3565b505050565b6107a383838360405180602001604052806000815250610cae565b505050565b600860009054906101000a900473ffffffffffffffffffffffffffffffffffffffff1681565b6000806107da836113bc565b9050600073ffffffffffffffffffffffffffffffffffffffff168173ffffffffffffffffffffffffffffffffffffffff160361084b576040517f08c379a00000000000000000000000000000000000000000000000000000000081526004016108429061267a565b60405180910390fd5b80915050919050565b60008073ffffffffffffffffffffffffffffffffffffffff168273ffffffffffffffffffffffffffffffffffffffff16036108c4576040517f08c379a00000000000000000000000000000000000000000000000000000000081526004016108bb9061270c565b60405180910390fd5b600360008373ffffffffffffffffffffffffffffffffffffffff1673ffffffffffffffffffffffffffffffffffffffff168152602001908152602001600020549050919050565b6000600754341015610952576040517f08c379a000000000000000000000000000000000000000000000000000000000815260040161094990612778565b60405180910390fd5b600080600860009054906101000a900473ffffffffffffffffffffffffffffffffffffffff1673ffffffffffffffffffffffffffffffffffffffff1663541e18c3856040518263ffffffff1660e01b81526004016109b091906123b6565b600060405180830381865afa1580156109cd573d6000803e3d6000fd5b505050506040513d6000823e3d601f19601f820116820180604052508101906109f6919061294d565b915091506000825111610a3e576040517f08c379a0000000000000000000000000000000000000000000000000000000008152600401610a3590612a11565b60405180910390fd5b8051825114610a82576040517f08c379a0000000000000000000000000000000000000000000000000000000008152600401610a7990612a7d565b60405180910390fd5b6000610a8e60066113f9565b9050610a9a6006611407565b610aa4338261141d565b604051806060016040528086815260200184815260200183815250600960008381526020019081526020016000206000820151816000019081610ae79190612c49565b506020820151816001019080519060200190610b04929190611caa565b506040820151816002019080519060200190610b21929190611d34565b509050506000805b8451811015610bf9576000858281518110610b4757610b46612d1b565b5b602002602001015190506000858381518110610b6657610b65612d1b565b5b602002602001015190506000606482600754610b829190612d79565b610b8c9190612dea565b90508273ffffffffffffffffffffffffffffffffffffffff166108fc829081150290604051600060405180830381858888f19350505050158015610bd4573d6000803e3d6000fd5b508085610be19190612e1b565b94505050508080610bf190612e4f565b915050610b29565b5081945050505050919050565b606060018054610c1590612447565b80601f0160208091040260200160405190810160405280929190818152602001828054610c4190612447565b8015610c8e5780601f10610c6357610100808354040283529160200191610c8e565b820191906000526020600020905b815481529060010190602001808311610c7157829003601f168201915b5050505050905090565b610caa610ca3610f6d565b838361143b565b5050565b610cbf610cb9610f6d565b8361102e565b610cfe576040517f08c379a0000000000000000000000000000000000000000000000000000000008152600401610cf59061260e565b60405180910390fd5b610d0a848484846115a7565b50505050565b6060610d1b82610f22565b6000610d25611603565b90506000815111610d455760405180602001604052806000815250610d70565b80610d4f8461161a565b604051602001610d60929190612ed3565b6040516020818303038152906040525b915050919050565b60075481565b6009602052806000526040600020600091509050806000018054610da190612447565b80601f0160208091040260200160405190810160405280929190818152602001828054610dcd90612447565b8015610e1a5780601f10610def57610100808354040283529160200191610e1a565b820191906000526020600020905b815481529060010190602001808311610dfd57829003601f168201915b5050505050905081565b6000600560008473ffffffffffffffffffffffffffffffffffffffff1673ffffffffffffffffffffffffffffffffffffffff16815260200190815260200160002060008373ffffffffffffffffffffffffffffffffffffffff1673ffffffffffffffffffffffffffffffffffffffff16815260200190815260200160002060009054906101000a900460ff16905092915050565b60007f01ffc9a7000000000000000000000000000000000000000000000000000000007bffffffffffffffffffffffffffffffffffffffffffffffffffffffff1916827bffffffffffffffffffffffffffffffffffffffffffffffffffffffff1916149050919050565b610f2b816116e8565b610f6a576040517f08c379a0000000000000000000000000000000000000000000000000000000008152600401610f619061267a565b60405180910390fd5b50565b600033905090565b816004600083815260200190815260200160002060006101000a81548173ffffffffffffffffffffffffffffffffffffffff021916908373ffffffffffffffffffffffffffffffffffffffff160217905550808273ffffffffffffffffffffffffffffffffffffffff16610fe8836107ce565b73ffffffffffffffffffffffffffffffffffffffff167f8c5be1e5ebec7d5bd14f71427d1e84f3dd0314c0f7b2291e5b200ac8c7c3b92560405160405180910390a45050565b60008061103a836107ce565b90508073ffffffffffffffffffffffffffffffffffffffff168473ffffffffffffffffffffffffffffffffffffffff16148061107c575061107b8185610e24565b5b806110ba57508373ffffffffffffffffffffffffffffffffffffffff166110a2846105cb565b73ffffffffffffffffffffffffffffffffffffffff16145b91505092915050565b8273ffffffffffffffffffffffffffffffffffffffff166110e3826107ce565b73ffffffffffffffffffffffffffffffffffffffff1614611139576040517f08c379a000000000000000000000000000000000000000000000000000000000815260040161113090612f69565b60405180910390fd5b600073ffffffffffffffffffffffffffffffffffffffff168273ffffffffffffffffffffffffffffffffffffffff16036111a8576040517f08c379a000000000000000000000000000000000000000000000000000000000815260040161119f90612ffb565b60405180910390fd5b6111b58383836001611729565b8273ffffffffffffffffffffffffffffffffffffffff166111d5826107ce565b73ffffffffffffffffffffffffffffffffffffffff161461122b576040517f08c379a000000000000000000000000000000000000000000000000000000000815260040161122290612f69565b60405180910390fd5b6004600082815260200190815260200160002060006101000a81549073ffffffffffffffffffffffffffffffffffffffff02191690556001600360008573ffffffffffffffffffffffffffffffffffffffff1673ffffffffffffffffffffffffffffffffffffffff168152602001908152602001600020600082825403925050819055506001600360008473ffffffffffffffffffffffffffffffffffffffff1673ffffffffffffffffffffffffffffffffffffffff16815260200190815260200160002060008282540192505081905550816002600083815260200190815260200160002060006101000a81548173ffffffffffffffffffffffffffffffffffffffff021916908373ffffffffffffffffffffffffffffffffffffffff160217905550808273ffffffffffffffffffffffffffffffffffffffff168473ffffffffffffffffffffffffffffffffffffffff167fddf252ad1be2c89b69c2b068fc378daa952ba7f163c4a11628f55a4df523b3ef60405160405180910390a46113b7838383600161172f565b505050565b60006002600083815260200190815260200160002060009054906101000a900473ffffffffffffffffffffffffffffffffffffffff169050919050565b600081600001549050919050565b6001816000016000828254019250508190555050565b611437828260405180602001604052806000815250611735565b5050565b8173ffffffffffffffffffffffffffffffffffffffff168373ffffffffffffffffffffffffffffffffffffffff16036114a9576040517f08c379a00000000000000000000000000000000000000000000000000000000081526004016114a090613067565b60405180910390fd5b80600560008573ffffffffffffffffffffffffffffffffffffffff1673ffffffffffffffffffffffffffffffffffffffff16815260200190815260200160002060008473ffffffffffffffffffffffffffffffffffffffff1673ffffffffffffffffffffffffffffffffffffffff16815260200190815260200160002060006101000a81548160ff0219169083151502179055508173ffffffffffffffffffffffffffffffffffffffff168373ffffffffffffffffffffffffffffffffffffffff167f17307eab39ab6107e8899845ad3d59bd9653f200f220920489ca2b5937696c318360405161159a9190611e52565b60405180910390a3505050565b6115b28484846110c3565b6115be84848484611790565b6115fd576040517f08c379a00000000000000000000000000000000000000000000000000000000081526004016115f4906130f9565b60405180910390fd5b50505050565b606060405180602001604052806000815250905090565b60606000600161162984611917565b01905060008167ffffffffffffffff811115611648576116476120fe565b5b6040519080825280601f01601f19166020018201604052801561167a5781602001600182028036833780820191505090505b509050600082602001820190505b6001156116dd578080600190039150507f3031323334353637383961626364656600000000000000000000000000000000600a86061a8153600a85816116d1576116d0612dbb565b5b04945060008503611688575b819350505050919050565b60008073ffffffffffffffffffffffffffffffffffffffff1661170a836113bc565b73ffffffffffffffffffffffffffffffffffffffff1614159050919050565b50505050565b50505050565b61173f8383611a6a565b61174c6000848484611790565b61178b576040517f08c379a0000000000000000000000000000000000000000000000000000000008152600401611782906130f9565b60405180910390fd5b505050565b60006117b18473ffffffffffffffffffffffffffffffffffffffff16611c87565b1561190a578373ffffffffffffffffffffffffffffffffffffffff1663150b7a026117da610f6d565b8786866040518563ffffffff1660e01b81526004016117fc9493929190613119565b6020604051808303816000875af192505050801561183857506040513d601f19601f82011682018060405250810190611835919061317a565b60015b6118ba573d8060008114611868576040519150601f19603f3d011682016040523d82523d6000602084013e61186d565b606091505b5060008151036118b2576040517f08c379a00000000000000000000000000000000000000000000000000000000081526004016118a9906130f9565b60405180910390fd5b805181602001fd5b63150b7a0260e01b7bffffffffffffffffffffffffffffffffffffffffffffffffffffffff1916817bffffffffffffffffffffffffffffffffffffffffffffffffffffffff19161491505061190f565b600190505b949350505050565b600080600090507a184f03e93ff9f4daa797ed6e38ed64bf6a1f0100000000000000008310611975577a184f03e93ff9f4daa797ed6e38ed64bf6a1f010000000000000000838161196b5761196a612dbb565b5b0492506040810190505b6d04ee2d6d415b85acef810000000083106119b2576d04ee2d6d415b85acef810000000083816119a8576119a7612dbb565b5b0492506020810190505b662386f26fc1000083106119e157662386f26fc1000083816119d7576119d6612dbb565b5b0492506010810190505b6305f5e1008310611a0a576305f5e1008381611a00576119ff612dbb565b5b0492506008810190505b6127108310611a2f576127108381611a2557611a24612dbb565b5b0492506004810190505b60648310611a525760648381611a4857611a47612dbb565b5b0492506002810190505b600a8310611a61576001810190505b80915050919050565b600073ffffffffffffffffffffffffffffffffffffffff168273ffffffffffffffffffffffffffffffffffffffff1603611ad9576040517f08c379a0000000000000000000000000000000000000000000000000000000008152600401611ad0906131f3565b60405180910390fd5b611ae2816116e8565b15611b22576040517f08c379a0000000000000000000000000000000000000000000000000000000008152600401611b199061325f565b60405180910390fd5b611b30600083836001611729565b611b39816116e8565b15611b79576040517f08c379a0000000000000000000000000000000000000000000000000000000008152600401611b709061325f565b60405180910390fd5b6001600360008473ffffffffffffffffffffffffffffffffffffffff1673ffffffffffffffffffffffffffffffffffffffff16815260200190815260200160002060008282540192505081905550816002600083815260200190815260200160002060006101000a81548173ffffffffffffffffffffffffffffffffffffffff021916908373ffffffffffffffffffffffffffffffffffffffff160217905550808273ffffffffffffffffffffffffffffffffffffffff16600073ffffffffffffffffffffffffffffffffffffffff167fddf252ad1be2c89b69c2b068fc378daa952ba7f163c4a11628f55a4df523b3ef60405160405180910390a4611c8360008383600161172f565b5050565b6000808273ffffffffffffffffffffffffffffffffffffffff163b119050919050565b828054828255906000526020600020908101928215611d23579160200282015b82811115611d225782518260006101000a81548173ffffffffffffffffffffffffffffffffffffffff021916908373ffffffffffffffffffffffffffffffffffffffff16021790555091602001919060010190611cca565b5b509050611d309190611d81565b5090565b828054828255906000526020600020908101928215611d70579160200282015b82811115611d6f578251825591602001919060010190611d54565b5b509050611d7d9190611d81565b5090565b5b80821115611d9a576000816000905550600101611d82565b5090565b6000604051905090565b600080fd5b600080fd5b60007fffffffff0000000000000000000000000000000000000000000000000000000082169050919050565b611de781611db2565b8114611df257600080fd5b50565b600081359050611e0481611dde565b92915050565b600060208284031215611e2057611e1f611da8565b5b6000611e2e84828501611df5565b91505092915050565b60008115159050919050565b611e4c81611e37565b82525050565b6000602082019050611e676000830184611e43565b92915050565b600081519050919050565b600082825260208201905092915050565b60005b83811015611ea7578082015181840152602081019050611e8c565b60008484015250505050565b6000601f19601f8301169050919050565b6000611ecf82611e6d565b611ed98185611e78565b9350611ee9818560208601611e89565b611ef281611eb3565b840191505092915050565b60006020820190508181036000830152611f178184611ec4565b905092915050565b6000819050919050565b611f3281611f1f565b8114611f3d57600080fd5b50565b600081359050611f4f81611f29565b92915050565b600060208284031215611f6b57611f6a611da8565b5b6000611f7984828501611f40565b91505092915050565b600073ffffffffffffffffffffffffffffffffffffffff82169050919050565b6000611fad82611f82565b9050919050565b611fbd81611fa2565b82525050565b6000602082019050611fd86000830184611fb4565b92915050565b611fe781611fa2565b8114611ff257600080fd5b50565b60008135905061200481611fde565b92915050565b6000806040838503121561202157612020611da8565b5b600061202f85828601611ff5565b925050602061204085828601611f40565b9150509250929050565b60008060006060848603121561206357612062611da8565b5b600061207186828701611ff5565b935050602061208286828701611ff5565b925050604061209386828701611f40565b9150509250925092565b6000602082840312156120b3576120b2611da8565b5b60006120c184828501611ff5565b91505092915050565b6120d381611f1f565b82525050565b60006020820190506120ee60008301846120ca565b92915050565b600080fd5b600080fd5b7f4e487b7100000000000000000000000000000000000000000000000000000000600052604160045260246000fd5b61213682611eb3565b810181811067ffffffffffffffff82111715612155576121546120fe565b5b80604052505050565b6000612168611d9e565b9050612174828261212d565b919050565b600067ffffffffffffffff821115612194576121936120fe565b5b61219d82611eb3565b9050602081019050919050565b82818337600083830152505050565b60006121cc6121c784612179565b61215e565b9050828152602081018484840111156121e8576121e76120f9565b5b6121f38482856121aa565b509392505050565b600082601f8301126122105761220f6120f4565b5b81356122208482602086016121b9565b91505092915050565b60006020828403121561223f5761223e611da8565b5b600082013567ffffffffffffffff81111561225d5761225c611dad565b5b612269848285016121fb565b91505092915050565b61227b81611e37565b811461228657600080fd5b50565b60008135905061229881612272565b92915050565b600080604083850312156122b5576122b4611da8565b5b60006122c385828601611ff5565b92505060206122d485828601612289565b9150509250929050565b600080600080608085870312156122f8576122f7611da8565b5b600061230687828801611ff5565b945050602061231787828801611ff5565b935050604061232887828801611f40565b925050606085013567ffffffffffffffff81111561234957612348611dad565b5b612355878288016121fb565b91505092959194509250565b600081519050919050565b600082825260208201905092915050565b600061238882612361565b612392818561236c565b93506123a2818560208601611e89565b6123ab81611eb3565b840191505092915050565b600060208201905081810360008301526123d0818461237d565b905092915050565b600080604083850312156123ef576123ee611da8565b5b60006123fd85828601611ff5565b925050602061240e85828601611ff5565b9150509250929050565b7f4e487b7100000000000000000000000000000000000000000000000000000000600052602260045260246000fd5b6000600282049050600182168061245f57607f821691505b60208210810361247257612471612418565b5b50919050565b7f4552433732313a20617070726f76616c20746f2063757272656e74206f776e6560008201527f7200000000000000000000000000000000000000000000000000000000000000602082015250565b60006124d4602183611e78565b91506124df82612478565b604082019050919050565b60006020820190508181036000830152612503816124c7565b9050919050565b7f4552433732313a20617070726f76652063616c6c6572206973206e6f7420746f60008201527f6b656e206f776e6572206f7220617070726f76656420666f7220616c6c000000602082015250565b6000612566603d83611e78565b91506125718261250a565b604082019050919050565b6000602082019050818103600083015261259581612559565b9050919050565b7f4552433732313a2063616c6c6572206973206e6f7420746f6b656e206f776e6560008201527f72206f7220617070726f76656400000000000000000000000000000000000000602082015250565b60006125f8602d83611e78565b91506126038261259c565b604082019050919050565b60006020820190508181036000830152612627816125eb565b9050919050565b7f4552433732313a20696e76616c696420746f6b656e2049440000000000000000600082015250565b6000612664601883611e78565b915061266f8261262e565b602082019050919050565b6000602082019050818103600083015261269381612657565b9050919050565b7f4552433732313a2061646472657373207a65726f206973206e6f74206120766160008201527f6c6964206f776e65720000000000000000000000000000000000000000000000602082015250565b60006126f6602983611e78565b91506127018261269a565b604082019050919050565b60006020820190508181036000830152612725816126e9565b9050919050565b7f496e73756666696369656e742066656500000000000000000000000000000000600082015250565b6000612762601083611e78565b915061276d8261272c565b602082019050919050565b6000602082019050818103600083015261279181612755565b9050919050565b600067ffffffffffffffff8211156127b3576127b26120fe565b5b602082029050602081019050919050565b600080fd5b6000815190506127d881611fde565b92915050565b60006127f16127ec84612798565b61215e565b90508083825260208201905060208402830185811115612814576128136127c4565b5b835b8181101561283d578061282988826127c9565b845260208401935050602081019050612816565b5050509392505050565b600082601f83011261285c5761285b6120f4565b5b815161286c8482602086016127de565b91505092915050565b600067ffffffffffffffff8211156128905761288f6120fe565b5b602082029050602081019050919050565b6000815190506128b081611f29565b92915050565b60006128c96128c484612875565b61215e565b905080838252602082019050602084028301858111156128ec576128eb6127c4565b5b835b81811015612915578061290188826128a1565b8452602084019350506020810190506128ee565b5050509392505050565b600082601f830112612934576129336120f4565b5b81516129448482602086016128b6565b91505092915050565b6000806040838503121561296457612963611da8565b5b600083015167ffffffffffffffff81111561298257612981611dad565b5b61298e85828601612847565b925050602083015167ffffffffffffffff8111156129af576129ae611dad565b5b6129bb8582860161291f565b9150509250929050565b7f4e6f207265666572656e636564206172746973747320666f756e640000000000600082015250565b60006129fb601b83611e78565b9150612a06826129c5565b602082019050919050565b60006020820190508181036000830152612a2a816129ee565b9050919050565b7f496e76616c6964206f776e6572736869702070657263656e7461676573000000600082015250565b6000612a67601d83611e78565b9150612a7282612a31565b602082019050919050565b60006020820190508181036000830152612a9681612a5a565b9050919050565b60008190508160005260206000209050919050565b60006020601f8301049050919050565b600082821b905092915050565b600060088302612aff7fffffffffffffffffffffffffffffffffffffffffffffffffffffffffffffffff82612ac2565b612b098683612ac2565b95508019841693508086168417925050509392505050565b6000819050919050565b6000612b46612b41612b3c84611f1f565b612b21565b611f1f565b9050919050565b6000819050919050565b612b6083612b2b565b612b74612b6c82612b4d565b848454612acf565b825550505050565b600090565b612b89612b7c565b612b94818484612b57565b505050565b5b81811015612bb857612bad600082612b81565b600181019050612b9a565b5050565b601f821115612bfd57612bce81612a9d565b612bd784612ab2565b81016020851015612be6578190505b612bfa612bf285612ab2565b830182612b99565b50505b505050565b600082821c905092915050565b6000612c2060001984600802612c02565b1980831691505092915050565b6000612c398383612c0f565b9150826002028217905092915050565b612c5282612361565b67ffffffffffffffff811115612c6b57612c6a6120fe565b5b612c758254612447565b612c80828285612bbc565b600060209050601f831160018114612cb35760008415612ca1578287015190505b612cab8582612c2d565b865550612d13565b601f198416612cc186612a9d565b60005b82811015612ce957848901518255600182019150602085019450602081019050612cc4565b86831015612d065784890151612d02601f891682612c0f565b8355505b6001600288020188555050505b505050505050565b7f4e487b7100000000000000000000000000000000000000000000000000000000600052603260045260246000fd5b7f4e487b7100000000000000000000000000000000000000000000000000000000600052601160045260246000fd5b6000612d8482611f1f565b9150612d8f83611f1f565b9250828202612d9d81611f1f565b91508282048414831517612db457612db3612d4a565b5b5092915050565b7f4e487b7100000000000000000000000000000000000000000000000000000000600052601260045260246000fd5b6000612df582611f1f565b9150612e0083611f1f565b925082612e1057612e0f612dbb565b5b828204905092915050565b6000612e2682611f1f565b9150612e3183611f1f565b9250828201905080821115612e4957612e48612d4a565b5b92915050565b6000612e5a82611f1f565b91507fffffffffffffffffffffffffffffffffffffffffffffffffffffffffffffffff8203612e8c57612e8b612d4a565b5b600182019050919050565b600081905092915050565b6000612ead82611e6d565b612eb78185612e97565b9350612ec7818560208601611e89565b80840191505092915050565b6000612edf8285612ea2565b9150612eeb8284612ea2565b91508190509392505050565b7f4552433732313a207472616e736665722066726f6d20696e636f72726563742060008201527f6f776e6572000000000000000000000000000000000000000000000000000000602082015250565b6000612f53602583611e78565b9150612f5e82612ef7565b604082019050919050565b60006020820190508181036000830152612f8281612f46565b9050919050565b7f4552433732313a207472616e7366657220746f20746865207a65726f2061646460008201527f7265737300000000000000000000000000000000000000000000000000000000602082015250565b6000612fe5602483611e78565b9150612ff082612f89565b604082019050919050565b6000602082019050818103600083015261301481612fd8565b9050919050565b7f4552433732313a20617070726f766520746f2063616c6c657200000000000000600082015250565b6000613051601983611e78565b915061305c8261301b565b602082019050919050565b6000602082019050818103600083015261308081613044565b9050919050565b7f4552433732313a207472616e7366657220746f206e6f6e20455243373231526560008201527f63656976657220696d706c656d656e7465720000000000000000000000000000602082015250565b60006130e3603283611e78565b91506130ee82613087565b604082019050919050565b60006020820190508181036000830152613112816130d6565b9050919050565b600060808201905061312e6000830187611fb4565b61313b6020830186611fb4565b61314860408301856120ca565b818103606083015261315a818461237d565b905095945050505050565b60008151905061317481611dde565b92915050565b6000602082840312156131905761318f611da8565b5b600061319e84828501613165565b91505092915050565b7f4552433732313a206d696e7420746f20746865207a65726f2061646472657373600082015250565b60006131dd602083611e78565b91506131e8826131a7565b602082019050919050565b6000602082019050818103600083015261320c816131d0565b9050919050565b7f4552433732313a20746f6b656e20616c7265616479206d696e74656400000000600082015250565b6000613249601c83611e78565b915061325482613213565b602082019050919050565b600060208201905081810360008301526132788161323c565b905091905056fea2646970667358221220348ddaeb15d0878c4ee2f4be0f0b29f0056b108db4014263db154332f716b0d064736f6c63430008130033",
  "immutableReferences": {},
  "source": "// SPDX-License-Identifier: MIT\n\n// Smart Contract for AI Generated Art\n\npragma solidity ^0.8.0;\n\nimport \"@openzeppelin/contracts/token/ERC721/ERC721.sol\";\nimport \"@openzeppelin/contracts/token/ERC721/extensions/ERC721Enumerable.sol\";\nimport \"@openzeppelin/contracts/utils/Counters.sol\";\n\ninterface IReferenceArtists {\n    function getReferenceArtists(bytes memory _image) external view returns (address[] memory, uint256[] memory);\n}\n\ncontract AIGeneratedArt is ERC721 {\n\n    using Counters for Counters.Counter;\n    Counters.Counter private _tokenIdCounter;\n\n    uint256 public fee;\n    address public referenceArtistsContract;\n\n    struct Art {\n        bytes image;\n        address[] referencedArtists;\n        uint256[] ownershipPercentages;\n    }\n\n    mapping (uint256 => Art) public arts;\n\n    constructor(string memory _name, string memory _symbol, uint256 _fee, address _referenceArtistsContract) ERC721(_name, _symbol) {\n        fee = _fee;\n        referenceArtistsContract = _referenceArtistsContract;\n    }\n\n    function mint(bytes memory _image) external payable returns (uint256) {\n        require(msg.value >= fee, \"Insufficient fee\");\n        (address[] memory referencedArtists, uint256[] memory ownershipPercentages) = IReferenceArtists(referenceArtistsContract).getReferenceArtists(_image);\n        require(referencedArtists.length > 0, \"No referenced artists found\");\n        require(referencedArtists.length == ownershipPercentages.length, \"Invalid ownership percentages\");\n\n        uint256 tokenId = _tokenIdCounter.current();\n        _tokenIdCounter.increment();\n        _safeMint(msg.sender, tokenId);\n        arts[tokenId] = Art(_image, referencedArtists, ownershipPercentages);\n\n        uint256 distributedFees = 0;\n        for (uint256 i = 0; i < referencedArtists.length; i++) {\n            address artist = referencedArtists[i];\n            uint256 percentage = ownershipPercentages[i];\n            uint256 artistFee = (fee * percentage) / 100;\n            payable(artist).transfer(artistFee);\n            distributedFees += artistFee;\n        }\n        // if (distributedFees < fee) {\n        //     payable(owner()).transfer(fee - distributedFees);\n        // }\n\n        return tokenId;\n    }\n}\n\ncontract ReferencedArtist is ERC721 {\n\n    string public artistName;\n\n    constructor(string memory _artistName, string memory _symbol) ERC721(_artistName, _symbol) {\n        artistName = _artistName;\n    }\n}",
  "sourcePath": "/Users/bury.huang/git/webapp/tribute/contracts/arts.sol",
  "compiler": {
    "name": "solc",
    "version": "0.8.19+commit.7dd6d404.Emscripten.clang"
  },
  "schemaVersion": "3.4.2",
  "updatedAt": "2023-03-24T19:51:17.450Z",
  "devdoc": {
    "events": {
      "Approval(address,address,uint256)": {
        "details": "Emitted when `owner` enables `approved` to manage the `tokenId` token."
      },
      "ApprovalForAll(address,address,bool)": {
        "details": "Emitted when `owner` enables or disables (`approved`) `operator` to manage all of its assets."
      },
      "Transfer(address,address,uint256)": {
        "details": "Emitted when `tokenId` token is transferred from `from` to `to`."
      }
    },
    "kind": "dev",
    "methods": {
      "approve(address,uint256)": {
        "details": "See {IERC721-approve}."
      },
      "balanceOf(address)": {
        "details": "See {IERC721-balanceOf}."
      },
      "getApproved(uint256)": {
        "details": "See {IERC721-getApproved}."
      },
      "isApprovedForAll(address,address)": {
        "details": "See {IERC721-isApprovedForAll}."
      },
      "name()": {
        "details": "See {IERC721Metadata-name}."
      },
      "ownerOf(uint256)": {
        "details": "See {IERC721-ownerOf}."
      },
      "safeTransferFrom(address,address,uint256)": {
        "details": "See {IERC721-safeTransferFrom}."
      },
      "safeTransferFrom(address,address,uint256,bytes)": {
        "details": "See {IERC721-safeTransferFrom}."
      },
      "setApprovalForAll(address,bool)": {
        "details": "See {IERC721-setApprovalForAll}."
      },
      "supportsInterface(bytes4)": {
        "details": "See {IERC165-supportsInterface}."
      },
      "symbol()": {
        "details": "See {IERC721Metadata-symbol}."
      },
      "tokenURI(uint256)": {
        "details": "See {IERC721Metadata-tokenURI}."
      },
      "transferFrom(address,address,uint256)": {
        "details": "See {IERC721-transferFrom}."
      }
    },
    "version": 1
  },
  "userdoc": {
    "kind": "user",
    "methods": {},
    "version": 1
  }
}