{
  "contractName": "ReferencedArtist",
  "abi": [
    {
      "inputs": [
        {
          "internalType": "string",
          "name": "_artistName",
          "type": "string"
        },
        {
          "internalType": "string",
          "name": "_symbol",
          "type": "string"
        }
      ],
      "stateMutability": "nonpayable",
      "type": "constructor"
    },
    {
      "anonymous": false,
      "inputs": [
        {
          "indexed": true,
          "internalType": "address",
          "name": "owner",
          "type": "address"
        },
        {
          "indexed": true,
          "internalType": "address",
          "name": "approved",
          "type": "address"
        },
        {
          "indexed": true,
          "internalType": "uint256",
          "name": "tokenId",
          "type": "uint256"
        }
      ],
      "name": "Approval",
      "type": "event"
    },
    {
      "anonymous": false,
      "inputs": [
        {
          "indexed": true,
          "internalType": "address",
          "name": "owner",
          "type": "address"
        },
        {
          "indexed": true,
          "internalType": "address",
          "name": "operator",
          "type": "address"
        },
        {
          "indexed": false,
          "internalType": "bool",
          "name": "approved",
          "type": "bool"
        }
      ],
      "name": "ApprovalForAll",
      "type": "event"
    },
    {
      "anonymous": false,
      "inputs": [
        {
          "indexed": true,
          "internalType": "address",
          "name": "from",
          "type": "address"
        },
        {
          "indexed": true,
          "internalType": "address",
          "name": "to",
          "type": "address"
        },
        {
          "indexed": true,
          "internalType": "uint256",
          "name": "tokenId",
          "type": "uint256"
        }
      ],
      "name": "Transfer",
      "type": "event"
    },
    {
      "inputs": [
        {
          "internalType": "address",
          "name": "to",
          "type": "address"
        },
        {
          "internalType": "uint256",
          "name": "tokenId",
          "type": "uint256"
        }
      ],
      "name": "approve",
      "outputs": [],
      "stateMutability": "nonpayable",
      "type": "function"
    },
    {
      "inputs": [],
      "name": "artistName",
      "outputs": [
        {
          "internalType": "string",
          "name": "",
          "type": "string"
        }
      ],
      "stateMutability": "view",
      "type": "function"
    },
    {
      "inputs": [
        {
          "internalType": "address",
          "name": "owner",
          "type": "address"
        }
      ],
      "name": "balanceOf",
      "outputs": [
        {
          "internalType": "uint256",
          "name": "",
          "type": "uint256"
        }
      ],
      "stateMutability": "view",
      "type": "function"
    },
    {
      "inputs": [
        {
          "internalType": "uint256",
          "name": "tokenId",
          "type": "uint256"
        }
      ],
      "name": "getApproved",
      "outputs": [
        {
          "internalType": "address",
          "name": "",
          "type": "address"
        }
      ],
      "stateMutability": "view",
      "type": "function"
    },
    {
      "inputs": [
        {
          "internalType": "address",
          "name": "owner",
          "type": "address"
        },
        {
          "internalType": "address",
          "name": "operator",
          "type": "address"
        }
      ],
      "name": "isApprovedForAll",
      "outputs": [
        {
          "internalType": "bool",
          "name": "",
          "type": "bool"
        }
      ],
      "stateMutability": "view",
      "type": "function"
    },
    {
      "inputs": [],
      "name": "name",
      "outputs": [
        {
          "internalType": "string",
          "name": "",
          "type": "string"
        }
      ],
      "stateMutability": "view",
      "type": "function"
    },
    {
      "inputs": [
        {
          "internalType": "uint256",
          "name": "tokenId",
          "type": "uint256"
        }
      ],
      "name": "ownerOf",
      "outputs": [
        {
          "internalType": "address",
          "name": "",
          "type": "address"
        }
      ],
      "stateMutability": "view",
      "type": "function"
    },
    {
      "inputs": [
        {
          "internalType": "address",
          "name": "from",
          "type": "address"
        },
        {
          "internalType": "address",
          "name": "to",
          "type": "address"
        },
        {
          "internalType": "uint256",
          "name": "tokenId",
          "type": "uint256"
        }
      ],
      "name": "safeTransferFrom",
      "outputs": [],
      "stateMutability": "nonpayable",
      "type": "function"
    },
    {
      "inputs": [
        {
          "internalType": "address",
          "name": "from",
          "type": "address"
        },
        {
          "internalType": "address",
          "name": "to",
          "type": "address"
        },
        {
          "internalType": "uint256",
          "name": "tokenId",
          "type": "uint256"
        },
        {
          "internalType": "bytes",
          "name": "data",
          "type": "bytes"
        }
      ],
      "name": "safeTransferFrom",
      "outputs": [],
      "stateMutability": "nonpayable",
      "type": "function"
    },
    {
      "inputs": [
        {
          "internalType": "address",
          "name": "operator",
          "type": "address"
        },
        {
          "internalType": "bool",
          "name": "approved",
          "type": "bool"
        }
      ],
      "name": "setApprovalForAll",
      "outputs": [],
      "stateMutability": "nonpayable",
      "type": "function"
    },
    {
      "inputs": [
        {
          "internalType": "bytes4",
          "name": "interfaceId",
          "type": "bytes4"
        }
      ],
      "name": "supportsInterface",
      "outputs": [
        {
          "internalType": "bool",
          "name": "",
          "type": "bool"
        }
      ],
      "stateMutability": "view",
      "type": "function"
    },
    {
      "inputs": [],
      "name": "symbol",
      "outputs": [
        {
          "internalType": "string",
          "name": "",
          "type": "string"
        }
      ],
      "stateMutability": "view",
      "type": "function"
    },
    {
      "inputs": [
        {
          "internalType": "uint256",
          "name": "tokenId",
          "type": "uint256"
        }
      ],
      "name": "tokenURI",
      "outputs": [
        {
          "internalType": "string",
          "name": "",
          "type": "string"
        }
      ],
      "stateMutability": "view",
      "type": "function"
    },
    {
      "inputs": [
        {
          "internalType": "address",
          "name": "from",
          "type": "address"
        },
        {
          "internalType": "address",
          "name": "to",
          "type": "address"
        },
        {
          "internalType": "uint256",
          "name": "tokenId",
          "type": "uint256"
        }
      ],
      "name": "transferFrom",
      "outputs": [],
      "stateMutability": "nonpayable",
      "type": "function"
    }
  ],
  "bytecode": "0x60806040523480156200001157600080fd5b50604051620027ba380380620027ba83398181016040528101906200003791906200020c565b818181600090816200004a9190620004dc565b5080600190816200005c9190620004dc565b5050508160069081620000709190620004dc565b505050620005c3565b6000604051905090565b600080fd5b600080fd5b600080fd5b600080fd5b6000601f19601f8301169050919050565b7f4e487b7100000000000000000000000000000000000000000000000000000000600052604160045260246000fd5b620000e28262000097565b810181811067ffffffffffffffff82111715620001045762000103620000a8565b5b80604052505050565b60006200011962000079565b9050620001278282620000d7565b919050565b600067ffffffffffffffff8211156200014a5762000149620000a8565b5b620001558262000097565b9050602081019050919050565b60005b838110156200018257808201518184015260208101905062000165565b60008484015250505050565b6000620001a56200019f846200012c565b6200010d565b905082815260208101848484011115620001c457620001c362000092565b5b620001d184828562000162565b509392505050565b600082601f830112620001f157620001f06200008d565b5b8151620002038482602086016200018e565b91505092915050565b6000806040838503121562000226576200022562000083565b5b600083015167ffffffffffffffff81111562000247576200024662000088565b5b6200025585828601620001d9565b925050602083015167ffffffffffffffff81111562000279576200027862000088565b5b6200028785828601620001d9565b9150509250929050565b600081519050919050565b7f4e487b7100000000000000000000000000000000000000000000000000000000600052602260045260246000fd5b60006002820490506001821680620002e457607f821691505b602082108103620002fa57620002f96200029c565b5b50919050565b60008190508160005260206000209050919050565b60006020601f8301049050919050565b600082821b905092915050565b600060088302620003647fffffffffffffffffffffffffffffffffffffffffffffffffffffffffffffffff8262000325565b62000370868362000325565b95508019841693508086168417925050509392505050565b6000819050919050565b6000819050919050565b6000620003bd620003b7620003b18462000388565b62000392565b62000388565b9050919050565b6000819050919050565b620003d9836200039c565b620003f1620003e882620003c4565b84845462000332565b825550505050565b600090565b62000408620003f9565b62000415818484620003ce565b505050565b5b818110156200043d5762000431600082620003fe565b6001810190506200041b565b5050565b601f8211156200048c57620004568162000300565b620004618462000315565b8101602085101562000471578190505b62000489620004808562000315565b8301826200041a565b50505b505050565b600082821c905092915050565b6000620004b16000198460080262000491565b1980831691505092915050565b6000620004cc83836200049e565b9150826002028217905092915050565b620004e78262000291565b67ffffffffffffffff811115620005035762000502620000a8565b5b6200050f8254620002cb565b6200051c82828562000441565b600060209050601f8311600181146200055457600084156200053f578287015190505b6200054b8582620004be565b865550620005bb565b601f198416620005648662000300565b60005b828110156200058e5784890151825560018201915060208501945060208101905062000567565b86831015620005ae5784890151620005aa601f8916826200049e565b8355505b6001600288020188555050505b505050505050565b6121e780620005d36000396000f3fe608060405234801561001057600080fd5b50600436106100ea5760003560e01c80636352211e1161008c578063a22cb46511610066578063a22cb4651461025d578063b88d4fde14610279578063c87b56dd14610295578063e985e9c5146102c5576100ea565b80636352211e146101df57806370a082311461020f57806395d89b411461023f576100ea565b8063095ea7b3116100c8578063095ea7b31461016d57806323b872dd1461018957806342842e0e146101a55780635b2f515b146101c1576100ea565b806301ffc9a7146100ef57806306fdde031461011f578063081812fc1461013d575b600080fd5b610109600480360381019061010491906115bb565b6102f5565b6040516101169190611603565b60405180910390f35b6101276103d7565b60405161013491906116ae565b60405180910390f35b61015760048036038101906101529190611706565b610469565b6040516101649190611774565b60405180910390f35b610187600480360381019061018291906117bb565b6104af565b005b6101a3600480360381019061019e91906117fb565b6105c6565b005b6101bf60048036038101906101ba91906117fb565b610626565b005b6101c9610646565b6040516101d691906116ae565b60405180910390f35b6101f960048036038101906101f49190611706565b6106d4565b6040516102069190611774565b60405180910390f35b6102296004803603810190610224919061184e565b61075a565b604051610236919061188a565b60405180910390f35b610247610811565b60405161025491906116ae565b60405180910390f35b610277600480360381019061027291906118d1565b6108a3565b005b610293600480360381019061028e9190611a46565b6108b9565b005b6102af60048036038101906102aa9190611706565b61091b565b6040516102bc91906116ae565b60405180910390f35b6102df60048036038101906102da9190611ac9565b610983565b6040516102ec9190611603565b60405180910390f35b60007f80ac58cd000000000000000000000000000000000000000000000000000000007bffffffffffffffffffffffffffffffffffffffffffffffffffffffff1916827bffffffffffffffffffffffffffffffffffffffffffffffffffffffff191614806103c057507f5b5e139f000000000000000000000000000000000000000000000000000000007bffffffffffffffffffffffffffffffffffffffffffffffffffffffff1916827bffffffffffffffffffffffffffffffffffffffffffffffffffffffff1916145b806103d057506103cf82610a17565b5b9050919050565b6060600080546103e690611b38565b80601f016020809104026020016040519081016040528092919081815260200182805461041290611b38565b801561045f5780601f106104345761010080835404028352916020019161045f565b820191906000526020600020905b81548152906001019060200180831161044257829003601f168201915b5050505050905090565b600061047482610a81565b6004600083815260200190815260200160002060009054906101000a900473ffffffffffffffffffffffffffffffffffffffff169050919050565b60006104ba826106d4565b90508073ffffffffffffffffffffffffffffffffffffffff168373ffffffffffffffffffffffffffffffffffffffff160361052a576040517f08c379a000000000000000000000000000000000000000000000000000000000815260040161052190611bdb565b60405180910390fd5b8073ffffffffffffffffffffffffffffffffffffffff16610549610acc565b73ffffffffffffffffffffffffffffffffffffffff161480610578575061057781610572610acc565b610983565b5b6105b7576040517f08c379a00000000000000000000000000000000000000000000000000000000081526004016105ae90611c6d565b60405180910390fd5b6105c18383610ad4565b505050565b6105d76105d1610acc565b82610b8d565b610616576040517f08c379a000000000000000000000000000000000000000000000000000000000815260040161060d90611cff565b60405180910390fd5b610621838383610c22565b505050565b610641838383604051806020016040528060008152506108b9565b505050565b6006805461065390611b38565b80601f016020809104026020016040519081016040528092919081815260200182805461067f90611b38565b80156106cc5780601f106106a1576101008083540402835291602001916106cc565b820191906000526020600020905b8154815290600101906020018083116106af57829003601f168201915b505050505081565b6000806106e083610f1b565b9050600073ffffffffffffffffffffffffffffffffffffffff168173ffffffffffffffffffffffffffffffffffffffff1603610751576040517f08c379a000000000000000000000000000000000000000000000000000000000815260040161074890611d6b565b60405180910390fd5b80915050919050565b60008073ffffffffffffffffffffffffffffffffffffffff168273ffffffffffffffffffffffffffffffffffffffff16036107ca576040517f08c379a00000000000000000000000000000000000000000000000000000000081526004016107c190611dfd565b60405180910390fd5b600360008373ffffffffffffffffffffffffffffffffffffffff1673ffffffffffffffffffffffffffffffffffffffff168152602001908152602001600020549050919050565b60606001805461082090611b38565b80601f016020809104026020016040519081016040528092919081815260200182805461084c90611b38565b80156108995780601f1061086e57610100808354040283529160200191610899565b820191906000526020600020905b81548152906001019060200180831161087c57829003601f168201915b5050505050905090565b6108b56108ae610acc565b8383610f58565b5050565b6108ca6108c4610acc565b83610b8d565b610909576040517f08c379a000000000000000000000000000000000000000000000000000000000815260040161090090611cff565b60405180910390fd5b610915848484846110c4565b50505050565b606061092682610a81565b6000610930611120565b90506000815111610950576040518060200160405280600081525061097b565b8061095a84611137565b60405160200161096b929190611e59565b6040516020818303038152906040525b915050919050565b6000600560008473ffffffffffffffffffffffffffffffffffffffff1673ffffffffffffffffffffffffffffffffffffffff16815260200190815260200160002060008373ffffffffffffffffffffffffffffffffffffffff1673ffffffffffffffffffffffffffffffffffffffff16815260200190815260200160002060009054906101000a900460ff16905092915050565b60007f01ffc9a7000000000000000000000000000000000000000000000000000000007bffffffffffffffffffffffffffffffffffffffffffffffffffffffff1916827bffffffffffffffffffffffffffffffffffffffffffffffffffffffff1916149050919050565b610a8a81611205565b610ac9576040517f08c379a0000000000000000000000000000000000000000000000000000000008152600401610ac090611d6b565b60405180910390fd5b50565b600033905090565b816004600083815260200190815260200160002060006101000a81548173ffffffffffffffffffffffffffffffffffffffff021916908373ffffffffffffffffffffffffffffffffffffffff160217905550808273ffffffffffffffffffffffffffffffffffffffff16610b47836106d4565b73ffffffffffffffffffffffffffffffffffffffff167f8c5be1e5ebec7d5bd14f71427d1e84f3dd0314c0f7b2291e5b200ac8c7c3b92560405160405180910390a45050565b600080610b99836106d4565b90508073ffffffffffffffffffffffffffffffffffffffff168473ffffffffffffffffffffffffffffffffffffffff161480610bdb5750610bda8185610983565b5b80610c1957508373ffffffffffffffffffffffffffffffffffffffff16610c0184610469565b73ffffffffffffffffffffffffffffffffffffffff16145b91505092915050565b8273ffffffffffffffffffffffffffffffffffffffff16610c42826106d4565b73ffffffffffffffffffffffffffffffffffffffff1614610c98576040517f08c379a0000000000000000000000000000000000000000000000000000000008152600401610c8f90611eef565b60405180910390fd5b600073ffffffffffffffffffffffffffffffffffffffff168273ffffffffffffffffffffffffffffffffffffffff1603610d07576040517f08c379a0000000000000000000000000000000000000000000000000000000008152600401610cfe90611f81565b60405180910390fd5b610d148383836001611246565b8273ffffffffffffffffffffffffffffffffffffffff16610d34826106d4565b73ffffffffffffffffffffffffffffffffffffffff1614610d8a576040517f08c379a0000000000000000000000000000000000000000000000000000000008152600401610d8190611eef565b60405180910390fd5b6004600082815260200190815260200160002060006101000a81549073ffffffffffffffffffffffffffffffffffffffff02191690556001600360008573ffffffffffffffffffffffffffffffffffffffff1673ffffffffffffffffffffffffffffffffffffffff168152602001908152602001600020600082825403925050819055506001600360008473ffffffffffffffffffffffffffffffffffffffff1673ffffffffffffffffffffffffffffffffffffffff16815260200190815260200160002060008282540192505081905550816002600083815260200190815260200160002060006101000a81548173ffffffffffffffffffffffffffffffffffffffff021916908373ffffffffffffffffffffffffffffffffffffffff160217905550808273ffffffffffffffffffffffffffffffffffffffff168473ffffffffffffffffffffffffffffffffffffffff167fddf252ad1be2c89b69c2b068fc378daa952ba7f163c4a11628f55a4df523b3ef60405160405180910390a4610f16838383600161124c565b505050565b60006002600083815260200190815260200160002060009054906101000a900473ffffffffffffffffffffffffffffffffffffffff169050919050565b8173ffffffffffffffffffffffffffffffffffffffff168373ffffffffffffffffffffffffffffffffffffffff1603610fc6576040517f08c379a0000000000000000000000000000000000000000000000000000000008152600401610fbd90611fed565b60405180910390fd5b80600560008573ffffffffffffffffffffffffffffffffffffffff1673ffffffffffffffffffffffffffffffffffffffff16815260200190815260200160002060008473ffffffffffffffffffffffffffffffffffffffff1673ffffffffffffffffffffffffffffffffffffffff16815260200190815260200160002060006101000a81548160ff0219169083151502179055508173ffffffffffffffffffffffffffffffffffffffff168373ffffffffffffffffffffffffffffffffffffffff167f17307eab39ab6107e8899845ad3d59bd9653f200f220920489ca2b5937696c31836040516110b79190611603565b60405180910390a3505050565b6110cf848484610c22565b6110db84848484611252565b61111a576040517f08c379a00000000000000000000000000000000000000000000000000000000081526004016111119061207f565b60405180910390fd5b50505050565b606060405180602001604052806000815250905090565b606060006001611146846113d9565b01905060008167ffffffffffffffff8111156111655761116461191b565b5b6040519080825280601f01601f1916602001820160405280156111975781602001600182028036833780820191505090505b509050600082602001820190505b6001156111fa578080600190039150507f3031323334353637383961626364656600000000000000000000000000000000600a86061a8153600a85816111ee576111ed61209f565b5b049450600085036111a5575b819350505050919050565b60008073ffffffffffffffffffffffffffffffffffffffff1661122783610f1b565b73ffffffffffffffffffffffffffffffffffffffff1614159050919050565b50505050565b50505050565b60006112738473ffffffffffffffffffffffffffffffffffffffff1661152c565b156113cc578373ffffffffffffffffffffffffffffffffffffffff1663150b7a0261129c610acc565b8786866040518563ffffffff1660e01b81526004016112be9493929190612123565b6020604051808303816000875af19250505080156112fa57506040513d601f19601f820116820180604052508101906112f79190612184565b60015b61137c573d806000811461132a576040519150601f19603f3d011682016040523d82523d6000602084013e61132f565b606091505b506000815103611374576040517f08c379a000000000000000000000000000000000000000000000000000000000815260040161136b9061207f565b60405180910390fd5b805181602001fd5b63150b7a0260e01b7bffffffffffffffffffffffffffffffffffffffffffffffffffffffff1916817bffffffffffffffffffffffffffffffffffffffffffffffffffffffff1916149150506113d1565b600190505b949350505050565b600080600090507a184f03e93ff9f4daa797ed6e38ed64bf6a1f0100000000000000008310611437577a184f03e93ff9f4daa797ed6e38ed64bf6a1f010000000000000000838161142d5761142c61209f565b5b0492506040810190505b6d04ee2d6d415b85acef81000000008310611474576d04ee2d6d415b85acef8100000000838161146a5761146961209f565b5b0492506020810190505b662386f26fc1000083106114a357662386f26fc1000083816114995761149861209f565b5b0492506010810190505b6305f5e10083106114cc576305f5e10083816114c2576114c161209f565b5b0492506008810190505b61271083106114f15761271083816114e7576114e661209f565b5b0492506004810190505b60648310611514576064838161150a5761150961209f565b5b0492506002810190505b600a8310611523576001810190505b80915050919050565b6000808273ffffffffffffffffffffffffffffffffffffffff163b119050919050565b6000604051905090565b600080fd5b600080fd5b60007fffffffff0000000000000000000000000000000000000000000000000000000082169050919050565b61159881611563565b81146115a357600080fd5b50565b6000813590506115b58161158f565b92915050565b6000602082840312156115d1576115d0611559565b5b60006115df848285016115a6565b91505092915050565b60008115159050919050565b6115fd816115e8565b82525050565b600060208201905061161860008301846115f4565b92915050565b600081519050919050565b600082825260208201905092915050565b60005b8381101561165857808201518184015260208101905061163d565b60008484015250505050565b6000601f19601f8301169050919050565b60006116808261161e565b61168a8185611629565b935061169a81856020860161163a565b6116a381611664565b840191505092915050565b600060208201905081810360008301526116c88184611675565b905092915050565b6000819050919050565b6116e3816116d0565b81146116ee57600080fd5b50565b600081359050611700816116da565b92915050565b60006020828403121561171c5761171b611559565b5b600061172a848285016116f1565b91505092915050565b600073ffffffffffffffffffffffffffffffffffffffff82169050919050565b600061175e82611733565b9050919050565b61176e81611753565b82525050565b60006020820190506117896000830184611765565b92915050565b61179881611753565b81146117a357600080fd5b50565b6000813590506117b58161178f565b92915050565b600080604083850312156117d2576117d1611559565b5b60006117e0858286016117a6565b92505060206117f1858286016116f1565b9150509250929050565b60008060006060848603121561181457611813611559565b5b6000611822868287016117a6565b9350506020611833868287016117a6565b9250506040611844868287016116f1565b9150509250925092565b60006020828403121561186457611863611559565b5b6000611872848285016117a6565b91505092915050565b611884816116d0565b82525050565b600060208201905061189f600083018461187b565b92915050565b6118ae816115e8565b81146118b957600080fd5b50565b6000813590506118cb816118a5565b92915050565b600080604083850312156118e8576118e7611559565b5b60006118f6858286016117a6565b9250506020611907858286016118bc565b9150509250929050565b600080fd5b600080fd5b7f4e487b7100000000000000000000000000000000000000000000000000000000600052604160045260246000fd5b61195382611664565b810181811067ffffffffffffffff821117156119725761197161191b565b5b80604052505050565b600061198561154f565b9050611991828261194a565b919050565b600067ffffffffffffffff8211156119b1576119b061191b565b5b6119ba82611664565b9050602081019050919050565b82818337600083830152505050565b60006119e96119e484611996565b61197b565b905082815260208101848484011115611a0557611a04611916565b5b611a108482856119c7565b509392505050565b600082601f830112611a2d57611a2c611911565b5b8135611a3d8482602086016119d6565b91505092915050565b60008060008060808587031215611a6057611a5f611559565b5b6000611a6e878288016117a6565b9450506020611a7f878288016117a6565b9350506040611a90878288016116f1565b925050606085013567ffffffffffffffff811115611ab157611ab061155e565b5b611abd87828801611a18565b91505092959194509250565b60008060408385031215611ae057611adf611559565b5b6000611aee858286016117a6565b9250506020611aff858286016117a6565b9150509250929050565b7f4e487b7100000000000000000000000000000000000000000000000000000000600052602260045260246000fd5b60006002820490506001821680611b5057607f821691505b602082108103611b6357611b62611b09565b5b50919050565b7f4552433732313a20617070726f76616c20746f2063757272656e74206f776e6560008201527f7200000000000000000000000000000000000000000000000000000000000000602082015250565b6000611bc5602183611629565b9150611bd082611b69565b604082019050919050565b60006020820190508181036000830152611bf481611bb8565b9050919050565b7f4552433732313a20617070726f76652063616c6c6572206973206e6f7420746f60008201527f6b656e206f776e6572206f7220617070726f76656420666f7220616c6c000000602082015250565b6000611c57603d83611629565b9150611c6282611bfb565b604082019050919050565b60006020820190508181036000830152611c8681611c4a565b9050919050565b7f4552433732313a2063616c6c6572206973206e6f7420746f6b656e206f776e6560008201527f72206f7220617070726f76656400000000000000000000000000000000000000602082015250565b6000611ce9602d83611629565b9150611cf482611c8d565b604082019050919050565b60006020820190508181036000830152611d1881611cdc565b9050919050565b7f4552433732313a20696e76616c696420746f6b656e2049440000000000000000600082015250565b6000611d55601883611629565b9150611d6082611d1f565b602082019050919050565b60006020820190508181036000830152611d8481611d48565b9050919050565b7f4552433732313a2061646472657373207a65726f206973206e6f74206120766160008201527f6c6964206f776e65720000000000000000000000000000000000000000000000602082015250565b6000611de7602983611629565b9150611df282611d8b565b604082019050919050565b60006020820190508181036000830152611e1681611dda565b9050919050565b600081905092915050565b6000611e338261161e565b611e3d8185611e1d565b9350611e4d81856020860161163a565b80840191505092915050565b6000611e658285611e28565b9150611e718284611e28565b91508190509392505050565b7f4552433732313a207472616e736665722066726f6d20696e636f72726563742060008201527f6f776e6572000000000000000000000000000000000000000000000000000000602082015250565b6000611ed9602583611629565b9150611ee482611e7d565b604082019050919050565b60006020820190508181036000830152611f0881611ecc565b9050919050565b7f4552433732313a207472616e7366657220746f20746865207a65726f2061646460008201527f7265737300000000000000000000000000000000000000000000000000000000602082015250565b6000611f6b602483611629565b9150611f7682611f0f565b604082019050919050565b60006020820190508181036000830152611f9a81611f5e565b9050919050565b7f4552433732313a20617070726f766520746f2063616c6c657200000000000000600082015250565b6000611fd7601983611629565b9150611fe282611fa1565b602082019050919050565b6000602082019050818103600083015261200681611fca565b9050919050565b7f4552433732313a207472616e7366657220746f206e6f6e20455243373231526560008201527f63656976657220696d706c656d656e7465720000000000000000000000000000602082015250565b6000612069603283611629565b91506120748261200d565b604082019050919050565b600060208201905081810360008301526120988161205c565b9050919050565b7f4e487b7100000000000000000000000000000000000000000000000000000000600052601260045260246000fd5b600081519050919050565b600082825260208201905092915050565b60006120f5826120ce565b6120ff81856120d9565b935061210f81856020860161163a565b61211881611664565b840191505092915050565b60006080820190506121386000830187611765565b6121456020830186611765565b612152604083018561187b565b818103606083015261216481846120ea565b905095945050505050565b60008151905061217e8161158f565b92915050565b60006020828403121561219a57612199611559565b5b60006121a88482850161216f565b9150509291505056fea2646970667358221220c82bb224b8d486aaa3fbc53500b7a06a2fbb84772ab5426f91184e76209b6e4364736f6c63430008130033",
  "immutableReferences": {},
  "source": "// SPDX-License-Identifier: MIT\n\n// Smart Contract for AI Generated Art\n\npragma solidity ^0.8.0;\n\nimport \"@openzeppelin/contracts/token/ERC721/ERC721.sol\";\nimport \"@openzeppelin/contracts/token/ERC721/extensions/ERC721Enumerable.sol\";\nimport \"@openzeppelin/contracts/utils/Counters.sol\";\n\ninterface IReferenceArtists {\n    function getReferenceArtists(bytes memory _image) external view returns (address[] memory, uint256[] memory);\n}\n\ncontract AIGeneratedArt is ERC721 {\n\n    using Counters for Counters.Counter;\n    Counters.Counter private _tokenIdCounter;\n\n    uint256 public fee;\n    address public referenceArtistsContract;\n\n    struct Art {\n        bytes image;\n        address[] referencedArtists;\n        uint256[] ownershipPercentages;\n    }\n\n    mapping (uint256 => Art) public arts;\n\n    constructor(string memory _name, string memory _symbol, uint256 _fee, address _referenceArtistsContract) ERC721(_name, _symbol) {\n        fee = _fee;\n        referenceArtistsContract = _referenceArtistsContract;\n    }\n\n    function mint(bytes memory _image) external payable returns (uint256) {\n        require(msg.value >= fee, \"Insufficient fee\");\n        (address[] memory referencedArtists, uint256[] memory ownershipPercentages) = IReferenceArtists(referenceArtistsContract).getReferenceArtists(_image);\n        require(referencedArtists.length > 0, \"No referenced artists found\");\n        require(referencedArtists.length == ownershipPercentages.length, \"Invalid ownership percentages\");\n\n        uint256 tokenId = _tokenIdCounter.current();\n        _tokenIdCounter.increment();\n        _safeMint(msg.sender, tokenId);\n        arts[tokenId] = Art(_image, referencedArtists, ownershipPercentages);\n\n        uint256 distributedFees = 0;\n        for (uint256 i = 0; i < referencedArtists.length; i++) {\n            address artist = referencedArtists[i];\n            uint256 percentage = ownershipPercentages[i];\n            uint256 artistFee = (fee * percentage) / 100;\n            payable(artist).transfer(artistFee);\n            distributedFees += artistFee;\n        }\n        // if (distributedFees < fee) {\n        //     payable(owner()).transfer(fee - distributedFees);\n        // }\n\n        return tokenId;\n    }\n}\n\ncontract ReferencedArtist is ERC721 {\n\n    string public artistName;\n\n    constructor(string memory _artistName, string memory _symbol) ERC721(_artistName, _symbol) {\n        artistName = _artistName;\n    }\n}",
  "sourcePath": "/Users/bury.huang/git/webapp/tribute/contracts/arts.sol",
  "compiler": {
    "name": "solc",
    "version": "0.8.19+commit.7dd6d404.Emscripten.clang"
  },
  "schemaVersion": "3.4.2",
  "updatedAt": "2023-03-24T19:51:17.458Z",
  "devdoc": {
    "events": {
      "Approval(address,address,uint256)": {
        "details": "Emitted when `owner` enables `approved` to manage the `tokenId` token."
      },
      "ApprovalForAll(address,address,bool)": {
        "details": "Emitted when `owner` enables or disables (`approved`) `operator` to manage all of its assets."
      },
      "Transfer(address,address,uint256)": {
        "details": "Emitted when `tokenId` token is transferred from `from` to `to`."
      }
    },
    "kind": "dev",
    "methods": {
      "approve(address,uint256)": {
        "details": "See {IERC721-approve}."
      },
      "balanceOf(address)": {
        "details": "See {IERC721-balanceOf}."
      },
      "getApproved(uint256)": {
        "details": "See {IERC721-getApproved}."
      },
      "isApprovedForAll(address,address)": {
        "details": "See {IERC721-isApprovedForAll}."
      },
      "name()": {
        "details": "See {IERC721Metadata-name}."
      },
      "ownerOf(uint256)": {
        "details": "See {IERC721-ownerOf}."
      },
      "safeTransferFrom(address,address,uint256)": {
        "details": "See {IERC721-safeTransferFrom}."
      },
      "safeTransferFrom(address,address,uint256,bytes)": {
        "details": "See {IERC721-safeTransferFrom}."
      },
      "setApprovalForAll(address,bool)": {
        "details": "See {IERC721-setApprovalForAll}."
      },
      "supportsInterface(bytes4)": {
        "details": "See {IERC165-supportsInterface}."
      },
      "symbol()": {
        "details": "See {IERC721Metadata-symbol}."
      },
      "tokenURI(uint256)": {
        "details": "See {IERC721Metadata-tokenURI}."
      },
      "transferFrom(address,address,uint256)": {
        "details": "See {IERC721-transferFrom}."
      }
    },
    "version": 1
  },
  "userdoc": {
    "kind": "user",
    "methods": {},
    "version": 1
  }
}